:020000040800F2
:10000000D029002079030008575E00080D5400082D
:10001000555E000839090008C97200080000000098
:10002000000000000000000000000000B90200080D
:10003000D70F000800000000150300084167000802
:100040009303000893030008930300089303000838
:100050009303000893030008930300089303000828
:100060009303000893030008930300081D0F000882
:10007000290F000893030008930300089303000866
:100080009303000800000000010800089303000823
:1000900093030008911100089D110008F70F000854
:1000A000D567000815680008E96700089303000891
:1000B00093030008930300089303000893030008C8
:1000C00093030008930300089303000893030008B8
:1000D000930300089303000893030008BD7200080F
:1000E000D90F000893030008930300089303000846
:1000F0009303000893030008930300080000000026
:1001000000000000930300080000000093030008B3
:100110009303000800000000930300089303000805
:100120009303000893030008930300089303000857
:100130009303000800000000000000009303000883
:100140009303000893030008000000000000000073
:10015000000000000000000000000000000000009F
:1001600000000000000000000000000093030008F1
:1001700093030008000000000000000000000000E1
:1001800000000000930300080000000000000000D1
:10019000000000000000000000000000000000005F
:1001A0000000000000000000930300089303000813
:1001B0009303000893030008930300080000000065
:1001C0000000000093030008000000000000000091
:1001D000930300089303000800F002F800F05CF8B5
:1001E0000AA090E8000C82448344AAF10107DA4592
:1001F00001D100F051F8AFF2090EBAE80F0013F088
:10020000010F18BFFB1A43F001031847CC9D0000F3
:10021000EC9D00000A444FF0000C10F8013B13F075
:10022000070408BF10F8014B1D1108BF10F8015B4F
:10023000641E05D010F8016B641E01F8016BF9D142
:1002400013F0080F1EBF10F8014BAD1C0C1B09D199
:100250006D1E58BF01F801CBFAD505E014F8016B0B
:1002600001F8016B6D1EF9D59142D6D3704700009D
:100270000023002400250026103A28BF78C1FBD8AF
:10028000520728BF30C148BF0B6070471FB509F047
:1002900076F91FBD10B510BD00F0E3F91146FFF768
:1002A000F5FF07F0B3F900F001FA03B4FFF7F2FF2E
:1002B00003BC00F009FA00002C4B19680868B0E88C
:1002C000F04F80F30988BFF36F8F4FF0000080F389
:1002D000118870470000000008480068006880F33B
:1002E00008884FF0000080F3148862B661B6BFF34F
:1002F0004F8FBFF36F8F00DF00BF00BF08ED00E03E
:10030000DFF80C00016841F470010160704700BF24
:1003100088ED00E0EFF30980BFF36F8F134B1A688D
:100320001EF0100F08BF20ED108A20E9F04F10607A
:1003300009B44FF0500080F31188BFF34F8FBFF323
:100340006F8F08F0E9F84FF0000080F3118809BCC6
:1003500019680868B0E8F04F1EF0100F08BFB0EC45
:10036000108A80F30988BFF36F8F70474C0000201C
:10037000EFF30580704700000948804709480047AF
:10038000FEE7FEE7FEE7FEE7FEE7FEE7FEE7FEE745
:10039000FEE7FEE704480549054A064B70470000A2
:1003A000C5670008D9010008D0230020D02900200B
:1003B000D0250020D025002053EA020C00F06980EF
:1003C0002DE9F04B4FF00006002B1FBFB3FA83F569
:1003D00003FA05F424FA05F65E4012BF1643B2FA9A
:1003E00082F502FA05F4C5F120051EBF22FA05FCCC
:1003F00044EA0C04203556EA044C4FEA144418BF72
:10040000641C4FF000084FF00009904271EB030CA0
:1004100039D3002919BFB1FA81F701FA07F6B0FA0A
:1004200080F700FA07F6C7F120071EBF20FA07FC85
:1004300046EA0C062037B6FBF4FCA7EB0507103F95
:1004400007F01F0BCBF120060CFA0BFB2CFA06F67B
:1004500044BFB3460026202FA4BF5E464FF0000BDA
:100460005BEA060C08BF4FF0010B19EB0B09ABFB65
:10047000027C48EB0608C01B06FB02CC0BFB03CC3E
:1004800071EB0C01C1E70B46024641464846BDE808
:10049000F08B13B54FF000004FF00001AFF3008078
:1004A000BDE81C407047B2F120030AD5C2F1200319
:1004B00001FA02F120FA03F300FA02F041EA030123
:1004C000704700FA03F14FF000007047032A40F232
:1004D000308010F0030C00F0158011F8013BBCF1E6
:1004E000020F624498BF11F801CB00F8013B38BFFE
:1004F00011F8013BA2F1040298BF00F801CB38BF0C
:1005000000F8013B11F0030300F05780083AC0F0F7
:10051000088051F8043B083A51F804CBA0E80810D1
:10052000F5E7121D5CBF51F8043B40F8043BAFF304
:100530000080D20724BF11F8013B11F801CB48BF5E
:1005400011F8012B24BF00F8013B00F801CB48BF94
:1005500000F8012B704702F0FF0343EA032242EA4E
:10056000024200F05EB84FF0000200B51346944618
:100570009646203922BFA0E80C50A0E80C50B1F1FB
:100580002001BFF4F7AF090728BFA0E80C5048BF0F
:100590000CC05DF804EB890028BF40F8042B08BFAD
:1005A000704748BF20F8022B11F0804F18BF00F8A9
:1005B000012B704770477047704710B5203AC0F064
:1005C0000B80B1E81850203AA0E81850B1E8185054
:1005D000A0E81850BFF4F5AF5FEA027C24BFB1E891
:1005E0001850A0E8185044BF18C918C0BDE8104002
:1005F0005FEA827C24BF51F8043B40F8043B08BF0B
:100600007047D20728BF31F8023B48BF11F8012BD1
:1006100028BF20F8023B48BF00F8012B70474FF07D
:1006200000020429C0F0128010F0030C3FF49DAFCB
:10063000CCF1040CBCF1020F18BF00F8012BA8BFCD
:1006400020F8022BA1EB0C01FFF78FBF5FEAC17C02
:1006500024BF00F8012B00F8012B48BF00F8012B44
:100660007047754600F02CF8AE46050069465346C3
:1006700020F00700854618B020B5FFF78BFEBDE8D7
:1006800020404FF000064FF000074FF000084FF0F9
:10069000000B21F00701AC46ACE8C009ACE8C0098A
:1006A000ACE8C009ACE8C0098D46704710B50446F7
:1006B000AFF300802046BDE81040FFF7F6BD000014
:1006C000004870476C23002001491820ABBEFEE7AC
:1006D00026000200704700009FED221A9FED222A9B
:1006E00020EE010AB5EE001A30EE010ABDEEC01A86
:1006F00011EE100AB5EE400AF1EE10FAB8BF01385B
:1007000001EE100AB8EEC11A30EE410A20EE020ADC
:10071000BDEEC01A9FED152A11EE100A002130EE31
:10072000021AB1EB502F49F2D4711CBF0020B0EE79
:10073000410AC0F6000101EE100A01EB8001B8EE9B
:10074000411A30EE410A91ED001A91ED012AB7EEFF
:10075000003A33EE403A23EE011A20EE020A31EE5F
:10076000000A704783F9223E00000044000000C4E4
:100770009FED201A9FED202A20EE010ABDEEC01A3F
:1007800011EE100AB5EE400AF1EE10FAB8BF0138CA
:1007900001EE100AB8EEC11A30EE410A20EE020A4C
:1007A000BDEEC01A9FED152A11EE100A002130EEA1
:1007B000021AB1EB502F49F2D4711CBF0020B0EEE9
:1007C000410AC0F6000101EE100A01EB8001B8EE0B
:1007D000411A30EE410A91ED001A91ED012AB7EE6F
:1007E000003A33EE403A23EE011A20EE020A31EECF
:1007F000000A704783F9223E00000044000000C454
:1008000010B5044801F036FBBDE81040024801F085
:1008100031BB0000280400209404002070B5044679
:10082000006881688268C1F3400112F0010F28D08E
:1008300039BB816801F00D01012914D18168124A88
:100840001140891C816021680320086002F05CFD72
:10085000054612E002F058FD401B02280DD9206821
:100860008068C00709D0E06D40F01000E065206EA0
:1008700040F001002066012070BD20688068C0073C
:10088000E8D1002070BD0000C0FFFF7FF8B504462E
:10089000002000902068816811F0010F41D181682B
:1008A000214A11422ED18168D5432940491C8160DB
:1008B0001E48806800F0E07000020DD51C481D49FC
:1008C0000068B0FBF1F0401C00EB4000800000E04D
:1008D000401E00900028FBD102F016FD06461BE0EA
:1008E000816811F0010F03D181682940491C8160A2
:1008F00002F00AFD801B02280ED920680068C04360
:10090000C00709D0E06D40F01000E065206E40F0B7
:10091000010020660120F8BD20680168C943C907AD
:10092000DED10020F8BD00003F0000800003005031
:1009300048000020400D0300FEE72DE9FF410C4672
:10094000060017D0002C15D000203060706022689F
:10095000009001252027CDE901753046039506F06A
:100960005BFD62680097CDE901752346304603952B
:1009700006F052FDBDE8FF812DE9FF410C4606005F
:1009800018D0002C16D000203060706022680090D3
:1009900001252027CDE9017503463046039506F071
:1009A0003BFD62680097CDE9017500233046039551
:1009B00006F032FDBDE8FF812DE9F0410D462DED39
:1009C000028B84B006006DD0002D6BD00024346003
:1009D0007460286808F03AFE072200920427CDE9E7
:1009E000017402460B463046039406F015FD686814
:1009F00008F02CFE03220092CDE9017402460B465A
:100A00003046039406F008FDA86808F01FFE0F2387
:100A100000930822CDE9012402460B463046039498
:100A200006F0FAFCE86808F009FD9FED218B53EC15
:100A3000182B08F0ADFA08F0A7FD4FF010081723A7
:100A40000127CDE90038CDE9024702460B46304682
:100A500006F0E2FC286908F0F1FC53EC182B08F0D2
:100A600097FA08F091FD2723CDE90038CDE9024738
:100A700002460B46304606F0CFFC686908F0DEFC03
:100A80009FED0D1B53EC112B08F0DAFB08F07CFDF9
:100A90003723CDE90038CDE9024702460B46304600
:100AA00006F0BAFC04B0BDEC028BBDE8F08100009A
:100AB000FCA9F1D24D62503F000000000000004050
:100AC00038B50C46050019D0002C17D00020206046
:100AD00060600346009001220721284606F02EFCA4
:100AE00008F0DAFC2060012000900023102217217A
:100AF000284606F023FC08F0CFFC606038BD0000FB
:100B000010B501281BD0002833D10021194804F06A
:100B10006FF80421174804F06BF80821154804F019
:100B200067F80021134803F09DFB0421114803F0EE
:100B300099FBBDE8104008210E4803F093BB00214B
:100B40000C4803F0D7FF04210A4803F0D3FF082123
:100B5000084803F0CFFF0021064803F027FB0421DB
:100B6000044803F023FBBDE810400821014803F0CE
:100B70001DBB10BD18060020224810B59FED200AAD
:100B8000214980ED1D0A8160D1ED060AD0ED011AE0
:100B9000B2EE040A20EEA11AF0EE000A21EE202A9D
:100BA0009FED1A1A22EE012AC2EE002AC0ED032A96
:100BB00091ED072A62EE211A61EEA01A61EE811A08
:100BC00081EE802A80ED0B2AD1ED051A104961EEE5
:100BD000A00A20EE811AC1EE000AC0ED040AC0EDA1
:100BE0000C0A002041F8840F087105F071FA00F03A
:100BF0000FFA05F031F9BDE8104004F061BB0000C8
:100C000000000000D8000020D8030020DB0F49407E
:100C10001003002070B587482DED048BF0EE409A4C
:100C2000B0EE609A90ED0A0AF6EE000AB0EE618A24
:100C300060EE200AF0EE418A9FED7F1A7F4C80EE35
:100C4000810AA06890ED001AC0EE010A9FED7C0AAF
:100C50007C4E7D4D20EE800A86ED090AD5E9041010
:100C6000B0FBF1F201FB1202B2EB510F02D39FED88
:100C7000770A01E09FED760A401C85ED020A686163
:100C800005F0D2FC6D4A94F8AC309432111F081F65
:100C9000B0EE681AF0EE490AB0EE690A05F0EAF91A
:100CA000664994ED230AD4ED240A084681ED1E0A14
:100CB0009FED681A60EE011A9FED670A40EE801AF8
:100CC000C0ED1F1A94ED1E1AD4ED1A0A94ED190AFC
:100CD000584805F003F995ED021AD4ED1F0A94ED7A
:100CE0001E0A594804F010FB94ED1D0AFFF740FD61
:100CF00084ED1B0A94ED1D0AFFF7EEFC84ED1C0A3F
:100D0000D4ED1E1A94ED1F1AD4ED1B0A21EE802A91
:100D100021EE000A494901EE202A01EEE00A0846C8
:100D200081ED172A80ED180A96ED050A0C3084ED46
:100D3000150AD6ED040AC4ED160AD4ED170A30EEF2
:100D4000600A04F02FFB84ED130A94ED160AD4ED2B
:100D5000180A3A4830EE600A2C3004F023FB84ED88
:100D6000140AD4ED130A94ED1C1AD4ED1B1A33485F
:100D700020EE812A014600F1AC0300F1A00200EE52
:100D8000612A60EEA11AF0EE480A40EE011A80EDE9
:100D9000192A98309FED310AC1ED1A1A94ED191AEB
:100DA0009C3105F0EBFA94ED130AD4ED140A2348B4
:100DB00020EE000AA43000EEA00ADFED290AB5EE0D
:100DC000C00AF1EE10FA04DBB1EEC01A80ED001A91
:100DD00001E0C0ED000A94ED291A9FED220A1748A0
:100DE00008EE401A28EE000A403084ED2A1A9FEDE2
:100DF0001E1A20EE010A84ED080AB1EE401A84EDB5
:100E0000071A20EE000A94ED131A01EE410AB5EE1E
:100E1000C00AF1EE10FA01DBF1EEC00AC0ED000AE3
:100E200094ED100AB1EE400A84ED0F0ABDEC048B7C
:100E300070BD00000C220020DB0F4940D8000020CC
:100E40000000704210030020180200209A991940F7
:100E50009A9919C03ACD133F3ACD933F0000FA4515
:100E600000000000ABAA2A3F5C8F823F10B5254CE2
:100E700094F8AD0030B1012807D0022808D003282B
:100E80000BD108E004F0ACFB07E004F0E7FB04E062
:100E900004F0B8FB01E004F0FFFB00F0F3F8F4E924
:100EA0002E01401C41F10001C4E900011649174818
:100EB000242291ED080A80ED000A91ED090A1449F7
:100EC00080ED010A14ED0B0A80ED020A14ED0A0A06
:100ED00080ED030A91ED060A80ED040A91ED070A00
:100EE00080ED050A91ED130A0A4980ED060A91ED9D
:100EF0000B0A014680ED070ABDE81040064804F0E1
:100F000095B90000D8000020100300200400002044
:100F1000180200200C220020FC060020014801F0ED
:100F2000CEBB000090070020014801F0C8BB0000C4
:100F3000F00700200D4902688A4201D20C4901E005
:100F40000B492031D2B21423083AB2FBF3F2436CBE
:100F500002F01F0223F00303194481640449803125
:100F6000C1640121914001657047000008040240FE
:100F7000000802400179074A02EB81024265054AF6
:100F80004432491E826501F01F0201219140C16572
:100F900070470000FC08024030B5D0E91345656099
:100FA000446D14B1D0E91645656090F8444004F0F2
:100FB0001F050124AC40056C6C60046863608368A5
:100FC000102B036803D099600068C26030BD9A603E
:100FD0000068C16030BD704710B54FF4806002F00A
:100FE00063F84FF4006002F05FF8BDE810404FF482
:100FF000005002F059B84FF4807002F055B800006C
:101000000249002009684862704700006406002019
:1010100010B53C21144803F043FB1348002100683D
:10102000416213489FED110A142280ED090A9FEDD9
:10103000110A80ED0A0A9FED100A80ED0E0A9FED5D
:101040000F0A80ED0D0A0182C0E90521C16101840A
:10105000418480F84C104FF47A619FED090A0165D4
:1010600080ED000A10BD0000640600209A9901413D
:101070007C22002026E4033C00401C4600401CC6A5
:1010800017B7513810B52DED048B07F00BF83B4C1A
:10109000DFED3B8AB0EE008A218AB1EE009A401A59
:1010A00081B22184206D814200D9091AB1FBF0F28E
:1010B00000FB121100EE101AB8EE400A20EE080AEA
:1010C00060EE280A00EE100AB8EE401A80EE810A9F
:1010D00020EE090A84ED010A04F024FA84ED010AE5
:1010E000A0692849401CA06109680968C90609D49B
:1010F000218C628C9142A1EB02010DD201F57A4163
:10110000E2690AE0228C618C8A42A2EB010103D9D8
:10111000A1F57A41E26900E0E2691144E1616169A7
:10112000884226D394ED070AF8EEC00A9FED160A0E
:1011300060EE801AD4ED140AF8EE600A81EEA01A6F
:1011400000EE900AD4ED001A0020F8EE600A61EE7D
:10115000A01AC1EE210AC4ED030A60EE880A60EE0F
:10116000A80A80EE801A21EE090A84ED020AE061E5
:10117000A061208C6084BDEC048B10BD7C2200201B
:10118000DB0F4940640600200000704272B6FEE7A3
:10119000014801F006BD000000050020014801F0F3
:1011A00000BD000000050020F0B5D1E901650C6923
:1011B0002C430D68C6B145F080452C43D1E9066546
:1011C000354391F820704E69406D46EA0766354315
:1011D0008E8903EBC30300EBC30045EA0645E0E854
:1011E000024500230B4D0FE044EA8544E6E7D4189E
:1011F000D65CE77846EA0766A77864783F0447EA52
:101200000424264340C01B1DCC682C5D9C42EED8B4
:10121000F0BD0000F8960008F8B5002604460096D8
:1012200090F858000D4601280BD0012084F8580092
:101230002046FFF7F3FA0100E06D04D040F0100003
:101240002AE00220F8BD20F4885040F00200E0655A
:1012500020688268134B1A4005F080431A4342F01D
:1012600000428260104A20680EE0009B5B1C0093E5
:10127000934209D3E06D20F0020040F01000E065D9
:1012800084F858600120F8BD8368DB0FEDD1E06D74
:1012900020F0020040F00100E06584F85860084644
:1012A000F8BD0000C0FFFF3F02DE040070470000F1
:1012B0002DE9F84F4FF000080446CDF800800D46A8
:1012C00094F85820DFF8EC93616947464046012ABC
:1012D0000AD00126F84A84F8586041B1296A0129E8
:1012E00005D0A36EEBB129E00220BDE8F88F686855
:1012F000092838D1A96A4FF4785041B12B6801F020
:101300007C0100EA53400843E96A084302E0296887
:1013100000EA51402168CB6C13400343CB64606604
:1013200021E0C4E91971A96A286A31B101F07C0190
:10133000401E0843E96A084300E0401E29682B79F3
:10134000C1F3846103F01F0399400143A06E401E66
:10135000A066636E43EA0103636604D12068C16C32
:1013600011401943C164206804F099F858B995F800
:10137000250098B12068C16895F8262021F4401115
:1013800041EA4251C160206804F091F88246206829
:1013900004F085F85AEA00000DD0FBE095F826002D
:1013A00095F82410400540EA01512068C26822F4F3
:1013B00040121143E6E7A86A30B1E86A20B195F817
:1013C000250001285ED003E095F82500012804D00F
:1013D0002068C16821F0007103E02068C16841F015
:1013E0000071C16095F83000012852D02068016971
:1013F00021F002010161AA6829682068B2F1004F5A
:1014000038D004F06FF82068416921F00041416153
:1014100020686969C268C2F3C102520091402A691A
:10142000042A44D000EB82002B68026EDFF88CC2E5
:1014300003F0F84302EA0C020B431A4342F0004166
:10144000016620682A69A96900EB8200026E22F019
:1014500080720A430266297F22682869012923D005
:101460005FF0000102EB8000026E22F000720A437E
:1014700002668FE0002204F035F82068416941F0EF
:101480000041C4E7E06D40F02000E0654FF0010846
:10149000A8E7D5E90D1001432068026922F4FF7224
:1014A00042F002021143A5E74FF00071DAE7002194
:1014B00003F0EBFF400320684FF0000172D003F00F
:1014C000E4FF90FAA0F0B0FA80F1286842036ED0F1
:1014D00090FAA0F0B0FA80F0814204D100221146C7
:1014E000206804F016F80121206803F0CEFF4003C5
:1014F00020684FF001015DD003F0C7FF90FAA0F023
:10150000B0FA80F12868420359D090FAA0F0B0FAFE
:1015100080F0814204D100220121206803F0F9FF0C
:101520000221206803F0B1FF400320684FF0020160
:1015300048D003F0AAFF90FAA0F0B0FA80F1286832
:10154000420344D090FAA0F0B0FA80F0814204D176
:1015500000220221206803F0DCFF0321206803F051
:1015600094FF400320684FF0030133D003F08DFF58
:1015700090FAA0F0B0FA80F1286842032FD090FAD8
:10158000A0F0B0FA80F0814204D10022032120684B
:1015900003F0BFFF2068816811F0010F22D0B6E090
:1015A00000E004E003F071FFC0F384618DE7C0F355
:1015B000846091E703F069FFC0F38461A2E7C0F3A0
:1015C0008460A6E703F061FFC0F38461B7E7C0F36E
:1015D0008460BBE703F059FFC0F38461CCE7C0F33C
:1015E0008460D0E72A7B296850F8B03FC1F3120C21
:1015F00023EA0C0302F0180C314A22FA0CF20A40DA
:1016000013430360E96849457ED1286841031CD033
:1016100090FAA0F1B1FA81F1491C01F01F010929EA
:101620004FEA403132D8002912D000BF90FAA0F121
:10163000B1FA81F101F1010101F01F0106FA01F691
:1016400009D100BFC0F3846109E0C0F38461E3E71E
:10165000C0F38461EEE790FAA0F1B1FA81F101F1F3
:10166000010101F01F0146EA816102D1C0F38460EB
:1016700003E090FAA0F0B0FA80F000F1010000F071
:101680001F0000EB400041EA00513AE000290ED073
:1016900090FAA0F1B1FA81F101F1010101F01F010D
:1016A00006FA01F60ED100BFC0F384610EE0C0F36C
:1016B0008461F1E700007F400040100400F0FF0368
:1016C000FFFF070090FAA0F1B1FA81F101F10101E9
:1016D00001F01F0146EA816102D1C0F3846003E09A
:1016E00090FAA0F0B0FA80F000F1010000F01F00C5
:1016F0002B4A00EB400002EB005041EA000141F0B0
:101700000071AA68206800E001E003F0EBFE2548C4
:101710002A68024240D024488168244B01F0E071DD
:101720009A4202D0224B9A421BD10B0219D4226852
:10173000B2F1A04F30D1826841F4000122F0E07292
:101740000A4382601B481C490068B0FBF1F0801C12
:1017500000EB4000800000E0401E00900028FBD11C
:101760001AE0164D164BAA4207D1CD0105D42268C6
:101770009A4211D041F0807109E0124DAA420BD17A
:101780004A0209D422689A4206D041F48001826854
:1017900022F0E0720A43826084F858704046A4E563
:1017A000000020FE0000088000030050000021C35C
:1017B0001000C09048000020400D0300000052C7F8
:1017C00000010050000084CB10B50068B0F1A04FBC
:1017D00014D109210A4800F019F80A4C09212060A7
:1017E000094800F013F8606040F20F11044800F05F
:1017F0000DF8A060BDE81040FFF738BB10BD000039
:101800002804002078210020940400200068A1F51D
:1018100080710F390ED0B1F5837F08D0B1F5037F09
:1018200002D0D0F880007047D0F88C007047D0F814
:1018300088007047D0F88400704770472DE9F04168
:1018400004464548806800F01F05206803F027FE25
:1018500008BB2168C868C96C00F0004011F4C07F63
:1018600000D190B194F85800012814D0012084F8D8
:1018700058002046FFF70AF801004FF000020CD094
:1018800084F858200846BDE8F081E06D40F0200063
:10189000E0650120F7E70220F5E7E06DC00504D51B
:1018A000206E20F00800206600E02266E06D42F223
:1018B0000103984340F48050E065284B20684FF0C6
:1018C000A046984201D1374600E00746874200D043
:1018D0001DB9E76D27F48017E7656027076084F876
:1018E00058202068C268920203D5426842F48062A0
:1018F0004260A06908282068426807D022F04002B0
:1019000042602068426842F0200206E022F0200295
:1019100042602068426842F040024260206898427B
:1019200001D1324600E00246824209D045B1062D7F
:1019300006D0072D04D0E06D40F48010E065A1E7EB
:10194000C26812F0007F9DD18268054B1A4042F0B8
:101950000802826096E7000000030050000100507A
:10196000C0FFFF7F704770472DE9F047044690F8AD
:1019700058009CB00E464FF00009012815D00120F8
:1019800084F8580000251795189520684FF0A04856
:1019900040450ED1284F0097384603F088FD824617
:1019A000206803F084FD60B10EE002201CB0BDE8A9
:1019B000F087E06D40F02000E06584F85850012089
:1019C000F4E7BAF1000F09D0E06D40F02000E065C7
:1019D0004FF0010984F858504846E7E71748326845
:1019E00040F61F71002A826822F4604216D094F8F3
:1019F000383042EA433273681A438260D8F80820CC
:101A0000BB6802F0010203F001031A43E2D1B3689C
:101A100032681A4383688B431A430BE08260D8F81C
:101A20000820BB6802F0010203F001031A43D1D180
:101A300082688A438260CDE70001005000030050B5
:101A40002DE9F84F00270446009790F85800DFF87A
:101A5000E0930D46B846012811D0012684F858605D
:101A6000206803F020FD60B1E06D40F02000E065EB
:101A70005FF0010784F858803846BDE8F88F0220EF
:101A8000FBE7D5E900210C23206803EA91131844F1
:101A9000036B01F01F014FF01F0C0CFA01FCC2F3A5
:101AA000846223EA0C038A4013430363206803F033
:101AB000FAFC8246206803F0EEFC5AEA00003CD1B2
:101AC000AA6829682068B2F1004F37D003F0FBFC08
:101AD0002068416921F00041416120686969C2685C
:101AE000C2F3C102520091402A69042A31D000EBAE
:101AF00082002B68026EDFF83CC303F0F84302EA71
:101B00000C020B431A4342F00041016620682A6927
:101B1000A96900EB8200026E22F080720A4302661D
:101B2000297F22682869012910D0002102EB80005A
:101B3000026E22F000720A4302667DE0002203F08A
:101B4000C2FC2068416941F00041C5E74FF00071D7
:101B5000ECE7002103F093FC400320684FF0000104
:101B600072D003F08CFC90FAA0F0B0FA80F12868F3
:101B700042036ED090FAA0F0B0FA80F0814204D116
:101B800000221146206803F0BCFC0121206803F00C
:101B900076FC400320684FF001015DD003F06FFC3C
:101BA00090FAA0F0B0FA80F12868420359D090FA78
:101BB000A0F0B0FA80F0814204D100220121206817
:101BC00003F09FFC0221206803F059FC40032068C9
:101BD0004FF0020148D003F052FC90FAA0F0B0FAA6
:101BE00080F12868420344D090FAA0F0B0FA80F067
:101BF000814204D100220221206803F082FC0321EB
:101C0000206803F03CFC400320684FF0030133D010
:101C100003F035FC90FAA0F0B0FA80F12868420396
:101C20002FD090FAA0F0B0FA80F0814204D10022C7
:101C30000321206803F065FC2068816811F0010F22
:101C400022D0ACE000E004E003F019FCC0F38461B2
:101C50008DE7C0F3846091E703F011FCC0F3846169
:101C6000A2E7C0F38460A6E703F009FCC0F3846137
:101C7000B7E7C0F38460BBE703F001FCC0F3846105
:101C8000CCE7C0F38460D0E72A7B296850F8B03FE6
:101C9000C1F3120C23EA0C0302F0180C664A22FA74
:101CA0000CF20A4013430360E968494577D128687C
:101CB00041031CD090FAA0F1B1FA81F1491C01F066
:101CC0001F0109294FEA403132D8002912D000BF44
:101CD00090FAA0F1B1FA81F101F1010101F01F01C7
:101CE00006FA01F609D100BFC0F3846109E0C0F330
:101CF0008461E3E7C0F38461EEE790FAA0F1B1FA02
:101D000081F101F1010101F01F0146EA816102D177
:101D1000C0F3846003E090FAA0F0B0FA80F000F124
:101D2000010000F01F0000EB400041EA005132E0EA
:101D300000290ED090FAA0F1B1FA81F101F1010170
:101D400001F01F0106FA01F606D100BFC0F384615D
:101D500006E0C0F38461F1E790FAA0F1B1FA81F1F5
:101D600001F1010101F01F0146EA816102D1C0F3D6
:101D7000846003E090FAA0F0B0FA80F000F1010076
:101D800000F01F002D4A00EB400002EB005041EA3A
:101D9000000141F00071AA68206803F094FB284814
:101DA0002A6802423FF466AE26488168264B01F05D
:101DB000E0719A4202D0254B9A421CD10B021AD4F0
:101DC0002268B2F1A04F7FF455AE826841F4000161
:101DD00022F0E0720A4382601D481E490068B0FB91
:101DE000F1F0401C00EB4000800000E0401E00903D
:101DF0000028FBD13EE6184D184BAA4207D1CD0171
:101E000005D422689A42F5D041F0807109E0144D62
:101E1000AA42EFD14A02EDD422689A42EAD041F4B4
:101E20008001826822F0E0720A43826022E60000AC
:101E300000007F4000F0FF03FFFF0700000020FECE
:101E40000000088000030050000021C31000C09073
:101E500048000020400D0300000052C70001005060
:101E6000000084CB70477047C06D70470068006CFD
:101E7000704700002DE9F05F044600680668456879
:101E8000DFF854B2DBF8080000F01F07B0070ED5EA
:101E9000A8070CD5E06DC00603D4E06D40F40060E7
:101EA000E0652046FFF702FA216802200860DFF8AB
:101EB0002CA270074FF0A04801D5680703D4300763
:101EC00037D5280735D5E06DC00603D4E06D40F462
:101ED0000070E065206803F0EEFA20B320685045FA
:101EE00001D1424600E00246824208D03FB1052FB0
:101EF00005D0092F03D0504503D1414602E0C16807
:101F000001E00146C96889040DD4016809070AD5B2
:101F100003F0C9FA58B3E06D40F01000E065206EA0
:101F200040F0010020662046FFF79CFF21680C204E
:101F30000860B00601D5A80603D4700658D5680617
:101F400056D5E06DC00603D4E06D40F40050E06566
:101F50002068C16C11F4C07F1AD00021894603F0BB
:101F6000AAFA02462068504514D1434613E020687F
:101F7000416821F00C014160E06D20F48070E06563
:101F8000E06DC004CFD4E06D40F00100E065CAE729
:101F90000121E3E70346834208D03FB1062F05D075
:101FA000072F03D0504503D1414602E0C16801E04C
:101FB0000146C968B9F1000F14D08B0102D58AB16E
:101FC0008A040FD4026852060CD589020AD403F0A1
:101FD00062FAE8B3E06D40F01000E065206E40F07A
:101FE000010020662046FFF7EFFB216860200860B3
:101FF00030060BD5280609D5E06D40F48030E06549
:10200000204600F067F9216880200860F0050CD5B3
:10201000E8050AD5E06D40F40030E0652046FFF7A2
:10202000A1FC21684FF480700860B0050CD5A805AC
:102030000AD5E06D40F48020E0652046FFF793FC70
:1020400021684FF400700860F0062ED5E80600E025
:1020500008E02AD5E06BD0B1AFB1DBF8080000F49E
:10206000604013E02068416821F060014160E06D4C
:1020700020F48050E065E06DC005B3D4E06D40F021
:102080000100E065AEE72068C068C00750B1E06DB0
:1020900040F48060E065206E40F00200206620463B
:1020A000FFF7E1FE216810200860700512D5680571
:1020B00010D5E06D40F48040E065206E40F00800EF
:1020C000206621684FF4806008602046BDE8F05F1C
:1020D000FFF7B3BBBDE8F09F0003005000010050C4
:1020E000F8B54FF0000504002E46009502D0E06DD3
:1020F00010B107E00120F8BD204600F0EDF826669B
:1021000084F8586020688168C1F3407119B1816812
:10211000684A1140816020688168C1F3007189B903
:102120008168654A114041F080518160634864498B
:102130000068B0FBF1F04000801C00E0401E009001
:102140000028FBD120688168C1F3007141B9E16DBD
:1021500041F01001E165216E41F001012166012588
:1021600003F0A1F9E16DC90600D430B1E06D40F093
:102170001000E06501252846F8BDE06D20F4807070
:1021800040F00200E0652068806810F0010F11D176
:102190004FF0A04080684B4900F00100896801F0D1
:1021A0000101084306D148486168826822F47C1224
:1021B0000A438260E168E06B627F0843A16841EAFC
:1021C0004231084394F8241040EA0140012904D127
:1021D000218D3E4A02EB41410843E16A29B101F4F5
:1021E0007871226B014342EA01002268D168384BC2
:1021F00019400143D16020680169626B21F04061A0
:1022000011430161206803F046F970BB207F94F808
:102210003810800340EA41022168C86844F2020392
:1022200098431043C86020690028206801690AD0DB
:1022300041F480310161206850F8C01F22696FF3BA
:102240000D01114307E021F480310161206850F84D
:10225000C01F6FF30D01016094F8400001280CD0FD
:102260002068016921F0010101616069012820688D
:10227000016B21F00F0111D013E0D4E911010843E3
:10228000D4E913121143084321680A6940F2FC7330
:102290009A43104340F001000861E6E7226A521EAB
:1022A00011430163E06D20F0020040F00100E065A1
:1022B00061E70000C0FFFF5FC0FFFF7F4800002014
:1022C000400D030000010050000300500000FEFF1D
:1022D0000740F0FF704700002DE9F04198B0044638
:1022E000142111A8FEF73FF944216846FEF73BF997
:1022F0004FF40041206800258A03384F0326384CEC
:102300004FF09048B0F1A04F10D0364B984261D1B9
:102310000F926846009101F0F7F908B1FEF736FF19
:102320003868401C3860012834D03BE00F92684682
:10233000009101F0E9F908B1FEF728FF3868401C68
:102340003860012807D1E06C40F40050E064E06C94
:1023500000F400501690E06C40F00100E064E06C86
:1023600000F001001690E06C40F00200E064E06CC8
:10237000139500F0020016900420CDE9110611A972
:10238000404600F09DFE02201395CDE9110611A9EB
:10239000154815E0E06C40F40050E064E06C00F497
:1023A00000501690E06C40F00100E064E06C139582
:1023B00000F0010016904120CDE9110611A9404618
:1023C00000F07EFE00220521122001F02BF81220E1
:1023D00001F01AF818B0BDE8F081000038000020C4
:1023E0000010024000010050000400482DE9F041B7
:1023F00004463B480F46816801F01F05A169082982
:102400000FD085B1052D0ED0092D0CD0806800F4B9
:10241000604060B1E06D40F02000E0650120BDE863
:10242000F081082604E02068C068C007F1E70426B0
:1024300000F06AFF804615E0781C13D000F064FFBE
:10244000A0EB0800B84200D867B9206800683042A5
:1024500008D1E06D40F00400E065002084F85800E9
:102460000320DCE7206800683042E5D0E06D40F4EE
:102470000070E065206803F01EF880B1607F70B9DD
:102480002068006800070AD5E06D20F48070E065E0
:10249000E06DC00403D4E06D40F00100E065114A36
:1024A00020684FF0A041904201D10B4600E0034666
:1024B000834210D07DB1052D0DD0092D0BD0904257
:1024C00000D00146C968082E07D0490401D40C2168
:1024D00001600020A3E7C168F5E70821F8E70000E4
:1024E00000030050000100502DE9F0410446384837
:1024F000806800F01F05206802F0D5FF18B10221A6
:102500000846BDE8F08194F8580001280CD001205D
:1025100084F858002046FEF7B9F901004FF0000397
:1025200004D084F85830EBE70220EAE7E06D40F68B
:102530000162904340F48070E065264A20684FF0C5
:10254000A046904201D1374600E00746874200D0BE
:102550001DB9E76D27F48017E765E76DFF0404D523
:10256000276E27F00607276600E023661C27076012
:1025700084F858302068904201D1334600E0034689
:10258000834215D0A5B1052D12D0092D10D0E36DD1
:1025900043F48013E365904200D13046C068800167
:1025A000AED5E06D20F4005040F48050E065A7E720
:1025B000C268920105D5E26D22F4005242F48052C5
:1025C000E2658268044B1A40121D826098E70000A1
:1025D0000003005000010050C0FFFF7F10B590F8CD
:1025E000253000210122022B03D00421C1630121E7
:1025F00022E003681C6824F00E041C60836C1C68D5
:1026000024F480741C6003681C6824F001041C60BE
:1026100090F84430046C03F01F0302FA03F3636084
:10262000D0E913345C60436D33B11C6824F48074CA
:102630001C60D0E916345C6080F82520002280F808
:102640002420084610BD70B590F8252000240121F3
:102650002346022A07D00422C26380F8251080F89E
:102660002430012429E00268156825F00E05156064
:102670000268156825F001051560826C156825F45F
:102680008075156090F84420056C02F01F0201FA75
:1026900002F26A60D0E913255560426D32B11568C7
:1026A00025F480751560D0E91625556080F8251051
:1026B00080F82430816B01B18847204670BDF0B4AA
:1026C000016C0C6801680D6890F8442002F01F0648
:1026D000042202FA06F3234211D06B070FD50B68D0
:1026E0009B0603D40B6823F004030B6090F844109E
:1026F00001F01F018A40016C4A60016B1DE002235A
:1027000003FA06F727424FF0000C4FF0010218D0F1
:10271000AF0716D50C68A40605D40C6824F00A048B
:102720000C6080F8252090F8441001F01F018B40C8
:10273000016C4B6080F824C0C16A00291AD0F0BC3B
:1027400008470823B340234214D02B0712D50B6847
:1027500023F00E030B6090F84410036C01F01F018E
:1027600002FA01F15960C26380F8252080F824C084
:10277000416BE2E7F0BC704770B504000CD02B4A07
:1027800021681420914209D2294A0A44B2FBF0F090
:102790008000606427480AE0012070BD234A52424D
:1027A0000A44B2FBF0F080006064204808382064DE
:1027B000022084F825000A6847F6F0708243D4E9C5
:1027C00002031843D4E904352B431843A369184383
:1027D000E3691843236A1843104308602046FEF754
:1027E000A9FBA0680025B0F5804F00D16560A16C01
:1027F00020790860D4E9130141606068401E032815
:1028000008D82046FEF7B6FB606D0560D4E91601D6
:10281000416002E06565A565E565E563012084F832
:10282000250084F82450002070BD000008040240F8
:10283000F8FFFDBF0000024070B5044690F8240088
:10284000002501280CD0012084F8240094F825608C
:102850000020012E06D084F824000225284670BDF1
:10286000022070BD022684F82560E06320680668B7
:1028700026F0010606602046FEF78EFB206B00283E
:102880002068016802D041F00E0106E021F0040149
:1028900001602068016841F00A010160A06C0168D4
:1028A000C90303D5016841F480710160606D18B1FE
:1028B000016841F4807101602068016841F0010104
:1028C0000160CBE770B5044600F01EFD0546601CB4
:1028D00002D004484068044400F016FD401BA042AA
:1028E000FAD370BD3C00002030B590F85C30012B6D
:1028F00007D0022B05D0016E41F0020101660120D4
:1029000030BD0468A36D4D0701D0DD071DD011F067
:10291000380F01D09D0718D511F4E07F01D05D0775
:1029200013D511F4F05F01D01D070ED511F4604FDF
:1029300001D0DD0609D511F4403F01D09D0604D534
:1029400011F47C0F05D05D0603D4E56D45F001055B
:10295000E5654C0701D0DC071DD111F0380F01D01F
:102960009C0718D411F4E07F01D05C0713D411F454
:10297000F05F01D01C070ED411F4604F01D0DC06CB
:1029800009D411F4403F01D09C0604D411F47C0F0B
:1029900006D05B0604D50368DC6D44F00204DC65F8
:1029A0000B0604D5036853F8DC4F14431C60CB05B9
:1029B00004D5036853F8E04F14431C600068426D6F
:1029C0000A434265002030BD70B5044690F85C00B3
:1029D000022803D0206E40F0080007E02068D0F8FD
:1029E000C4309B0205D5206E40F4007020660120A3
:1029F00070BDD0F8C400C0F301452B462046FEF759
:102A0000D3FB21680120A840C1F8CC00A0650020BC
:102A100070BD10B590F85C20012A07D0022A05D0BD
:102A2000016E41F002010166012010BD0A687AB111
:102A30000B7B0A690C7A42EA43734A69406C496825
:102A400042EA847200EBC100C0E90032002010BDF0
:102A50000B7A4A690C8A42EA83720B7B006CDB06B4
:102A6000496843EA04431A4340F82120EEE77047DF
:102A7000704700000068402905D0D0F8980000BFDA
:102A800000F00F007047D0F89000F9E7F0B590F82B
:102A90005C400025022C03D0016E41F0080160E08B
:102AA0000468402946D0D4F89860360756D0D4F848
:102AB0009860F60104D5D4F88060F60500D50125AC
:102AC000D4F89840C4F301246619C46C06EBC6051B
:102AD00004EBC504256815F080455560256843D092
:102AE00025F06045156025682C4F05F00055956070
:102AF00020CC05F00045156134F8045BADB2D5611A
:102B000054F8045CC5F30345D56054F8045C05F43F
:102B10008015556154F8045C05F40015956154F86E
:102B2000045CC5F30665156254F8045CED0F55624C
:102B3000002522E0D4F8906036070FD0D4F89060DA
:102B4000F60104D5D4F88060B60500D50125D4F887
:102B50009040C4F301246619846CB7E7016E41F418
:102B6000807101660120F0BDC5F38A45BAE700BF58
:102B700014F805C003F805C06D1CD2F80CC017F896
:102B80000CC0AC45F4D80068402903D0C0F89C6064
:102B90000020F0BDC0F89460FAE70000F896000845
:102BA00070472DE9F05F04460068016D426D01F445
:102BB000E05102EA0108016D426D01F0070102EAED
:102BC0000109016D426D01F0380102EA010A016D4F
:102BD000476D01F471010F40016D426D01F46021F8
:102BE000456D02EA010B016DCE43710607D4E9433E
:102BF000490604D4402101652046FFF7D1FFF005C6
:102C00000ED4E843C0050BD42068D0F8D820D0F803
:102C1000E01011404FF480720265204600F009FA7E
:102C2000B8F1000005D0216808654146204600F053
:102C300002FAB9F1000005D021680865494620462E
:102C400000F0B2F9BAF1000005D0216808655146DC
:102C5000204600F0D5F9B00509D4E843800506D434
:102C600021684FF400700865204600F0E5F9300651
:102C70000DD4E84300060AD42068D0F8D420D0F858
:102C8000DC10114080220265204600F0D3F9B00428
:102C900009D4E843800406D421684FF40050086545
:102CA000204600F0C5F9300409D4E843000406D4F6
:102CB00021684FF400400865204600F0B8F9700420
:102CC0000AD4E843400407D421684FF480400865E3
:102CD000206E40F080002066BBF1000005D0216826
:102CE000086559462046FFF7C3FE27B120680765EF
:102CF000206E38432066206E002802D02046FFF761
:102D0000B6FEBDE8F09F00002DE9F041040006D0BA
:102D1000DFF8E88194F85C00002518B107E0012095
:102D2000BDE8F08184F85D50204600F0EFF820689F
:102D3000816921F01001816100F0E6FA064603275F
:102D400005E000BF00F0E0FA801B0A2811D82068D7
:102D500080690007F6D42068816941F00101816132
:102D600000F0D2FA06460BE000F0CEFA801B0A28EB
:102D700006D9206E40F00100206684F85C70CEE732
:102D800020688069C007EFD02068816941F00201A6
:102D900081612168414502D1594960680860207C01
:102DA00001282068816937D041F040018161607C51
:102DB00001282068816932D021F480418161A07CA2
:102DC0000128206881692DD041F4805181612068FB
:102DD0008169A26821F44071114381612068816991
:102DE00021F0A40181612068016921F010010161D5
:102DF000E068012819D010B302281BD0206881692F
:102E000041F0800181612068016941F01001016198
:102E1000E06803280ED012E021F04001C6E741F43B
:102E20008041CBE721F48051D0E72068816941F0EF
:102E3000040103E02068816941F020018161207E66
:102E4000E26940066FF0FF0101EB0222A0F1007081
:102E50001043226AA38A521E10430A0202EB034364
:102E600018432368D861A068B0F5407F10D1D4E939
:102E70000A0301EB0321401E0843216B131303EBEC
:102E800001110843A18C02EB014108432168C8608D
:102E9000206850F8C01FE26B11430160194820649C
:102EA000216851F8802FA38E22F4F81242EA0342DF
:102EB0000A60144970316164216851F8802F94F8D8
:102EC000383022F0706242EA03620A600D49B03184
:102ED000A1640D49E1640C49D83121650A49F031FA
:102EE000616500F5547120C08842FCD3A565256654
:102EF000012084F85C00002012E70000006400401C
:102F00000065004000A4004088A5004010B598B0BE
:102F10000446142111A8FDF726FB44216846FDF75D
:102F200022FB1F492068884238D18014009040035A
:102F30000C90684600F0E8FB08B1FEF727F9194845
:102F4000816D41F000718165816D01F00071169114
:102F5000C16C41F00101C164C06C11A900F0010015
:102F600016904FF4C0501190022012900020139040
:102F7000149009201590C00600F0A2F80022052147
:102F8000152000F04FFA152000F03EFA002205212E
:102F9000162000F047FA162000F036FA18B010BDDF
:102FA00000640040001002401CB504464021FFF7B9
:102FB00061FD00281DD00F4B402103F15C0220462B
:102FC000FFF764FD0B485C300068B0F5917F10D1CD
:102FD00069460848FDF774FD07489DED010A074959
:102FE00080ED000A9DED000ABCEEC00A10EE100A4A
:102FF00008701CBDE82200208C02002089020020FD
:10300000704790F85C10012905D0016E41F0040171
:10301000016601207047022180F85C1001688A690E
:1030200022F001028A61002101660846704770475C
:103030007047704770477047704700001649B0F5F9
:10304000806F0FD0B0F5006F15D0B0F5005F19D0CC
:10305000B0F5807F05D1114810F84C1FC1F1010176
:10306000017070470878C04310F0FF00087000D06E
:1030700001204870704791ED010ADFED090A30EE3A
:10308000200A05E091ED010ADFED060A30EE600A44
:1030900081ED010A70470000880200207C22002098
:1030A0000000C84200004842044910B50A680242C4
:1030B00002D00860FFF7C2FF10BD000014040140F9
:1030C0002DE9F04FDFF82092002301260324A9F117
:1030D000040B85B00F2709F1040AABF1040EFAE0E6
:1030E00006FA03F52A407CD091F804C00CF0030CDA
:1030F000BCF1010F02D0BCF1020F26D1D0F808C0FC
:10310000CDF800C04FEA430C04FA0CF8CDF810C01B
:10311000DDF800C02CEA080CCDF800C0D1F80C8016
:10312000DDF810C008FA0CF8DDF800C048EA0C0819
:10313000C0F80880D0F804C02CEA050C0D79C5F35E
:1031400000159D4045EA0C0545600D79ED43AD073E
:103150000ED0C5684FEA430804FA08FC25EA0C05BE
:10316000D1F808C00CFA08FC4CEA050CC0F80CC0F9
:103170000D7905F00305022D16D1DD0800EB850C55
:10318000CDF808C0DCF820805D074FEAD56C07FA5F
:103190000CF528EA05080D6905FA0CF5DDF808C0FC
:1031A00045EA0805CCF8205005684FEA430CCDF8F5
:1031B00008C004FA0CFC25EA0C0591F804C00CF0D8
:1031C0000308DDF808C008FA0CF848EA0508C0F85A
:1031D00000804D6815F4403F7CD0444DD5F860C068
:1031E00000E077E04CF0010CC5F860C02D6E23F0D4
:1031F000030C05F0010500953D4D65440295AD6851
:103200004FEA837C4FEA1C7807FA08FC25EA0C0594
:10321000B0F1904F06D0DFF8DCC0604505D14FF02B
:10322000010C20E04FF0000C1DE0DFF8CCC0604541
:1032300002D14FF0020C16E0DFF8C0C0604502D1A9
:103240004FF0030C0FE0DFF8B8C0604502D14FF03B
:10325000040C08E0DFF8ACC0604502D14FF0050C6B
:1032600001E04FF0060C0CFA08FC4CEA050C029D3C
:10327000C5F808C0D9F80050CC46D1F80480954371
:103280005FEAC82800D51543CCF80050DAF80050A2
:10329000D446D1F8048095435FEA882800D51543C9
:1032A000CCF80050DBF80050DC46D1F804809543A0
:1032B0005FEA883800D51543CCF80050DEF800509E
:1032C000F446D1F8048095435FEAC83800D5154329
:1032D000CCF800505B1C0A6832FA03F57FF400AFAB
:1032E00005B0BDE8F08F0000080401400010024066
:1032F000000001400004004800080048000C00489D
:103300000010004800140048014880687047000021
:103310003C00002002488168426811448160704787
:103320003C00002010B50024032000F09BF805208D
:1033300000F008F808B1012401E000F047F8204649
:1033400010BD000030B505461B4887B0016E41F442
:1033500080210166006E06A900F48020009001A87B
:1033600000F004FC00F034FC1449154AB0FBF1F104
:103370001448491E0260416040F2E7320021C0E972
:103380000321816000F0A3FF040012D10D4801F079
:1033900047F804000DD11A2000F036F8102D07D29E
:1033A000002229461A2000F03DF80748056000E099
:1033B000012407B0204630BD0010024040420F00FB
:1033C00000480140500800203C0000200D4808B58E
:1033D000016E41F001010166016E01F001010091F1
:1033E000816D41F080518165806D002200F0805038
:1033F00000900F21901E00F015F8BDE8084000F085
:103400007BB9000000100240002809DB00F01F0219
:10341000012191404009800000F1E020C0F8001136
:1034200070470000F0B40E4B1B680C46C3F3022338
:10343000C3F10705042D00D90425191D072901D260
:10344000002300E0DB1E012606FA05F1491E21409B
:1034500099409E40761E16403143F0BC03F040BFB9
:103460000CED00E0064900F0070208684FF6FF0384
:10347000184040EA0220034A1043086070470000E9
:103480000CED00E00000FA05F8B504004FF000056F
:1034900014D094F83A00052810D094F83A00022885
:1034A0000CD03448016E41F001010166006E00F05D
:1034B0000100009094F83A0010B104E00120F8BD3A
:1034C000002084F83900204600F058F8A0682A4A05
:1034D0004FF48071402836D0602834D020680368CB
:1034E000E66A23F0100333430360D4E90103184371
:1034F000D4E9033633431843237D012B00D0002148
:103500000843616A0843A16A0843218E40EAC1402A
:1035100094F8341040EA01612068036813401943AD
:10352000016020688169002909DBD4E90612114392
:10353000226A836923F03F031A431143816194F89F
:103540003A0090B114E020680368E66A23F01003A3
:1035500033430360D4E901031843267D2369012E18
:1035600000D000210B431843CBE7012084F83A0038
:103570002846F8BD00100240113E00E030B587B08B
:10358000044614216846FCF7EEFF24681D4D002216
:103590001D4903234FF09040AC4209D1CC6C44F05C
:1035A0000104CC64C96C01F0010105910E210CE00D
:1035B000144D2D1DAC4211D1CC6C44F00104CC64EF
:1035C000C96C01F001010591E021CDE900130292DF
:1035D0004FEA0D01FFF774FD07B030BD0948083010
:1035E0008442F9D1C86C40F00200C864C86C6946D6
:1035F00000F0020005900720CDE900030292034885
:10360000E8E7000000030140001002400004004809
:10361000002138B190F83A20052A03D090F83A20DA
:10362000012A02D00121084670470268136843F05E
:1036300001031360042280F83A20F4E72B492C4B55
:103640000A6832214A432B4940B1B0F5007F08682F
:1036500029D020F4C06040F480602CE00868C0F3FA
:103660004120022804D051F8800F20F4807022E01D
:10367000D1F8800020F48070C1F88000086820F440
:10368000C06040F400700860B2FBF3F0401C00E042
:10369000401E4A69520501D50028F9D14869400504
:1036A0000AD503207047C0F34120022806D051F804
:1036B000800F40F48070086000207047D1F88000CF
:1036C00040F48070C1F88000086820F4C06040F4C5
:1036D00000700860B2FBF3F0401C00E0401E4A6935
:1036E0005205DBD50028F9D1D8E7000048000020BA
:1036F00040420F00007000400248816841F4804160
:1037000081607047007000402DE9F843044600686E
:1037100000269D4D00035ED5A86D0027C00008D48B
:10372000A86D40F08050A865A86D012700F080507A
:103730000090DFF85892D9F8001041F48071C9F870
:103740000010FFF7E1FD804606E000BFFFF7DCFD5B
:10375000A0EB080002282BD8D9F80000C005F5D549
:10376000D5F8900010F4407014D0216C814211D033
:10377000D5F89000D5F8901020F4407041F48031D5
:10378000C5F89010D5F8901021F48031C5F890104C
:10379000C5F89000C00711D0FFF7B6FD804641F292
:1037A000883907E0FFF7B0FDA0EB0801494501D9D2
:1037B00003260BE0D5F890008007F3D5D5F89000EC
:1037C000216C20F440700843C5F890001FB1A86D2B
:1037D00020F08050A8652078C00707D0D5F8880071
:1037E000616820F003000843C5F88800207880074E
:1037F00007D5D5F88800A16820F00C000843C5F86B
:1038000088002078400707D5D5F88800E16820F0C7
:1038100030000843C5F888002078000707D5D5F8A0
:103820008800216920F0C0000843C5F8880020788E
:10383000800607D5D5F88800616920F44060084308
:10384000C5F888002078400607D5D5F88800A1691A
:1038500020F440500843C5F888002078000607D5BA
:10386000D5F88800E16920F440400843C5F8880095
:103870002088C00507D5D5F88800216A20F440309B
:103880000843C5F888002088800507D5D5F888004A
:10389000616A20F440200843C5F88800208840056C
:1038A0000FD5D5F88800A16A20F440100843C5F868
:1038B0008800A06AB0F5801F03D1E86840F480104A
:1038C000E860208800050FD5D5F88800E16A20F46B
:1038D00040000843C5F88800E06AB0F5800F03D1C6
:1038E000E86840F48010E8602088C0040FD5D5F85F
:1038F0008800216B20F040700843C5F88800206BD9
:10390000B0F1807F03D1E86840F48010E86020883F
:103910004FF0006180040ED5D5F88800626B20F06E
:1039200040601043C5F88800606B884203D1E868A6
:1039300040F48010E860208840040ED5D5F8880057
:10394000A26B20F040601043C5F88800A06B88424D
:1039500003D1E86840F48010E860208800040FD5A7
:10396000D5F88800E16B20F040500843C5F8880086
:10397000E06BB0F1805F03D1E86840F48030E8602C
:103980003046BDE8F883000000100240007000409F
:103990002DE9F0470E4605004FF0000725D0DFF86F
:1039A000AC81D8F8000000F00F00B0420CD2D8F87B
:1039B000001021F00F013143C8F80010D8F80000C2
:1039C00000F00F00B04210D12968614CC80741F2E5
:1039D000883A5AD06868DFF87C91032808D002281A
:1039E00020682DD0400500282CDB0120BDE8F087A1
:1039F00020688001F9D5E06800F00302E068C0F3B8
:103A00000310401C032A19D0534A00BFB2FBF0F048
:103A1000E268C2F306225043E268C2F34162521CDC
:103A20005200B0FBF2F0484517D9A06810F0F00F33
:103A30000CD0880711D5A86840B10EE0474AE5E7E9
:103A40008003D0E700F0D6F8484506D9A06820F0FA
:103A5000F00040F08000A0608027A068696820F036
:103A600003000843A060FFF74FFC814606E000BF5B
:103A7000FFF74AFCA0EB090151453AD8A0686968F4
:103A800000F00C00B0EB810FF2D12868810714D54B
:103A9000400703D5A06840F4E060A06028780007E4
:103AA00005D5A06820F4605040F4E060A060A068F4
:103AB000A96820F0F000084304E0802F03D1A0683B
:103AC00020F0F000A060D8F80010404601F00F018F
:103AD000B14216D9016821F00F0131430160FFF7AF
:103AE00013FC074607E000BFFFF70EFCC11B514562
:103AF00001D903207AE7D8F8000000F00F00B042A7
:103B0000F2D12878400705D5A068E96820F4E06084
:103B10000843A0602878000706D5A068296920F42A
:103B2000605040EAC100A06000F064F8A1680C4A4F
:103B3000C1F30311515C01F01F01C840094908603D
:103B400009480068BDE8F047FFF7FCBB00200240D1
:103B50000010024000B4C4040024F40000127A00F3
:103B600030970008480000203C0000200F2202602F
:103B70000C4A936803F003034360936803F0F00377
:103B80008360936803F4E063C36092684FF4E0637A
:103B900003EAD20202610448006800F00F000860E6
:103BA000704700000010024000200240054806490E
:103BB00000688968054AC1F30221515C01F01F01C8
:103BC000C84070474800002000100240409700089D
:103BD0000548064900688968054AC1F3C221515C5D
:103BE00001F01F01C840704748000020001002404B
:103BF00040970008184910B58868C0F3810217483B
:103C0000012A0BD08A684310C2F38102022A06D02F
:103C10008A68C2F38102032A03D0002010BD18462F
:103C200010BDCA6802F00304CA68C2F30312521C32
:103C3000032C02D0B0FBF2F001E0B3FBF2F0CA6853
:103C4000C968C2F306225043C1F34161491C4900CF
:103C5000B0FBF1F010BD0000001002400024F400A1
:103C60002DE9F84304007AD02078F84DC00747D0FA
:103C7000A868E96800F00C0001F003010C2802D0EC
:103C8000082817D001E0032914D06068B0F5803F00
:103C900017D0B0F5A02F286817D020F48030286006
:103CA000286820F4802028606068E0B1FFF72CFBD2
:103CB000064614E02868800322D560680028D2D028
:103CC0001EE0286840F48030EDE740F48020286052
:103CD000F7E700BFFFF718FB801B642870D828683F
:103CE0008003F7D50CE0FFF70FFB064605E000BFA9
:103CF000FFF70AFB801B6428F0D828688003F7D4FC
:103D0000207880074CD5A868E96800F00C0001F025
:103D100003010C2802D004280DD001E002290AD0AA
:103D2000E068002828682BD040F480702860FFF7F6
:103D3000EBFA064619E02868400502D5E06800283D
:103D400091D06868217C20F0FE4040EA0160686004
:103D5000BF480068FFF7F6FA002800D120E072E1C2
:103D6000FFF7D2FA801B0228B8D828684005F7D59B
:103D70006868217C20F0FE4040EA016068600FE046
:103D800020F480702860FFF7BFFA064605E000BF08
:103D9000FFF7BAFA801B0228A0D828684005F7D49C
:103DA0002078000729D560690028D5F8940013D041
:103DB00040F00100C5F89400FFF7A6FA064606E0B9
:103DC00090E000BFFFF7A0FA801B022886D8D5F844
:103DD00094008007F6D510E020F00100C5F89400AB
:103DE000FFF792FA064604E0FFF78EFA801B0228DE
:103DF00078D8D5F894008007F6D42078400761D5AC
:103E0000A86D0026C00008D4A86D40F08050A865B9
:103E1000A86D012600F0805000908E480168C90509
:103E200011D40168804641F480710160FFF76CFA9B
:103E3000074604E0FFF768FAC01B022852D8D8F8FA
:103E40000000C005F6D5A068012815D00528D5F8D2
:103E5000900016D020F00100C5F89000D5F8900031
:103E600020F00400C5F89000A06841F28838B8B18D
:103E7000FFF74AFA07460EE0D5F8900040F001003F
:103E8000F0E740F00400C5F89000F5E7FFF73CFAD2
:103E9000C11B414526D8D5F890008007F6D50CE027
:103EA000FFF732FA074604E0FFF72EFAC11B41453F
:103EB00018D8D5F890008007F6D41EB1A86D20F070
:103EC0008050A8652078800629D5A0690028D5F8FB
:103ED000980013D040F00100C5F89800FFF714FADD
:103EE000064606E075E000BFFFF70EFA801B0228C9
:103EF0006FD8D5F898008007F6D510E020F00100C3
:103F0000C5F89800FFF700FA064604E0FFF7FCF951
:103F1000801B02285DD8D5F898008007F6D4E069A8
:103F2000F0B3A968C1F3810103295DD00228286894
:103F300020F08070286003D0FFF7E6F904464BE0DC
:103F4000FFF7E2F9064604E0FFF7DEF9801B0228DE
:103F50003FD828688001F7D4F4E908016FF00F0218
:103F600002EB01110843218A5204490802EB415136
:103F7000A26841EA02210843217D4FF07E424908B0
:103F800002EB41610843217B40EAC160E968324AA3
:103F900011400843E860286840F08070286000E025
:103FA0005EE0E86840F08070E860FFF7ADF9044635
:103FB00005E000BFFFF7A8F9001B022809D8286810
:103FC0008001F7D54CE000BFFFF79EF9001B0228E7
:103FD00002D90320BDE8F88328688001F4D4E8689A
:103FE0001E490840E8603BE00128F3D0E868226AF7
:103FF00000F00301914226D1616A00F0F00209014C
:10400000103991421FD1A26A00F4FE41B1EB022F98
:1040100019D194F82C2000F07841B1EBC26F12D185
:10402000218E00F4C00249084905A1F50011914212
:1040300009D194F8341000F0C06049084906A1F194
:10404000007181420CD00120C4E700000010024042
:104050003C000020007000400C809F01FCFFEEFE41
:104060000020B7E7704770477047000030B590F800
:104070003C20012A42D0012280F83C20CA688B688B
:1040800022F440721A434B6822F480621A430B6890
:1040900022F400621A430B6922F480521A434B69DE
:1040A00022F400521A430B6B22F480421A430B8B0A
:1040B00022F4702242EA0342CB6922F080521A4372
:1040C0000F4D03680024AB4202D00E4DAB4210D11D
:1040D0000D8D22F4700242EA05520D6A22F08072C0
:1040E0002A434D6A22F000722A43C96A22F0005224
:1040F0000A435A6480F83C40002030BD022030BDA5
:10410000002C0140003401407047704770470000A8
:10411000F0B590F83C20012A3AD0012580F83C50B7
:10412000022280F83D2003685A689C68194E1A4F95
:10413000B34201D0BB4204D122F4700C4A6842EA77
:104140000C02DFF858C002EA0C02D1F800C04CEAB9
:10415000020CC3F804C00268B2420DD0B2F1804F25
:104160000AD00F4B9A4207D00E4B9A4204D0BA4263
:1041700002D00D4B9A4204D1896824F08003194380
:10418000916080F83D50002180F83C100846F0BD59
:104190000220F0BD002C0140003401408FFFFFFDE4
:1041A00000040040000800400040014010B50446F3
:1041B000022249B104290ED0082913D094F84700EF
:1041C000012816D0012010BD94F844000128F9D12F
:1041D00084F844200FE094F845000128F2D184F8D7
:1041E000452008E094F846000128EBD184F84620E9
:1041F00001E084F847200422206802F08CFB20684C
:10420000416C41F4004141641049206888420ED05D
:10421000B0F1804F0BD00E49884208D00D4988423A
:1042200005D00D49884202D00C49884207D18168E7
:104230000B4A1140062906D0B1F5803F03D0016832
:1042400041F001010160002010BD0000002C014080
:1042500000040040000800400034014000400140DC
:104260000700010070B504460D460068002202F008
:1042700052FB2068036A41F211110B4244F244429E
:1042800006D1036A134203D1436C23F40043436411
:104290002068036A0B4206D1016A114203D101680A
:1042A00021F00101016001203DB1042D08D0082D4D
:1042B00009D084F84700002070BD84F84400FAE774
:1042C00084F84500F7E784F84600F4E7704710B536
:1042D000040003D094F83D0010B107E0012010BDA8
:1042E000002084F83C00204600F022F8022084F8E8
:1042F0003D00211D206802F0A3FA012084F8480047
:1043000084F83E0084F83F0084F8400084F84100BF
:1043100084F8420084F8430084F8440084F845009F
:1043200084F8460084F8470084F83D00002010BD62
:1043300008B51D4A01681D4891421ED1016E41F425
:1043400000610166006E002200F40060009005210B
:104350001820FFF767F81820FFF756F800220C2105
:104360001920FFF75FF81920FFF74EF8002205210A
:104370001A20FFF757F81A2010E00D4A914211D188
:10438000016E41F400310166006E002200F400303D
:1043900000900C211920FFF745F81920BDE80840CE
:1043A000FFF732B808BD0000002C014000100240A9
:1043B0000044014090F83D10012901D001207047D0
:1043C000022180F83D1000680F4988420ED0B0F1FC
:1043D000804F0BD00D49884208D00D49884205D046
:1043E0000C49884202D00C49884207D181680B4AA7
:1043F0001140062906D0B1F5803F03D0016841F095
:104400000101016000207047002C014000040040C1
:104410000008004000340140004001400700010056
:1044200090F83D10012901D001207047022180F849
:104430003D100168CA6842F00102CA600068104974
:1044400088420ED0B0F1804F0BD00E49884208D080
:104450000D49884205D00D49884202D00C49884256
:1044600007D181680B4A1140062906D0B1F5803F7B
:1044700003D0016841F00101016000207047000095
:10448000002C0140000400400008004000340140BE
:10449000004001400700010070B5044690F83C0060
:1044A0000025012814D0012684F83C60022084F8FD
:1044B0003D0022689068364B184020F47F409060A1
:1044C000086870282ED010DC10F00F0F03D021E008
:1044D0004FF0020070BD4FEA2012072A1AD2DFE81F
:1044E00002F0525252524A3840002A4BC21A9842A5
:1044F00049D009DCB0F5805F0DD0B0F5005F1CD06D
:10450000B0F1101F06D13EE0102A3CD0202A3AD04C
:10451000502A38D0012584F83D60002084F83C0002
:10452000284670BDCB68D1E90121206802F000FA6D
:104530002068816841F0770109E0CB68D1E9012169
:10454000206802F0F5F92068816841F480418160BB
:10455000E1E7CA684968206802F094FB50212068AE
:1045600006E0CA684968206802F09DFB6021206867
:1045700002F0E8F9CFE7CA684968206802F082FBD8
:1045800040212068F4E7226801461046F0E7000069
:1045900088FFCEFF200010002DE9F0410D460400F9
:1045A00003D094F83D0018B108E00120BDE8F08187
:1045B000002084F83C00204600F042F8022084F8F5
:1045C0003D00206881681D4A11408160211D2068DE
:1045D00002F036F9226890689169166A2B68AF6913
:1045E000034340F20330814341EA0721A868EF69A1
:1045F00008434FF6FC418843E96840EA072001433D
:1046000028692F6A000140EA0730084369686D692C
:1046100026F0AA0646EA05152943936022689061B0
:1046200054F8480B0162012004F81F096075A07559
:10463000E076207720750020B8E70000F8BFFEFF85
:1046400010B586B0044614216846FBF78CFF11496B
:10465000206888421CD11048816D41F004018165B9
:10466000816D01F004010591C16C41F00201C1644A
:10467000C06C002100F002000590C02000900220D4
:10468000CDE90101CDE9031069460448FEF718FDA4
:1046900006B010BD000800400010024000040048B1
:1046A00070B590F83E60044690F83F5090F8443062
:1046B00090F84520022021B104290ED0012E1BD1F3
:1046C00014E0012E18D1012B16D184F83E0084F895
:1046D000440001220021206820E0012D0CD1012A94
:1046E0000AD184F83F0084F8450014E0012D03D17D
:1046F000012B01D1012A01D0012070BD84F83E00B8
:1047000084F83F0084F8440084F845000122002129
:10471000206802F0F3F801220421206802F0EEF88C
:104720002068016841F001010160002070BD704700
:104730002DE9F04104460068C66805694FF000079E
:10474000A90713D5B10711D5F91E01610120207702
:10475000206880698007204602D0FFF7E8FF04E068
:1047600000F002F9204600F0C4F92777680716D553
:10477000700714D521686FF00400086102202077CB
:104780002068806910F4407F204602D0FFF7CFFFF9
:1047900004E000F0E9F8204600F0ABF9277728079D
:1047A00015D5300713D521686FF008000861042083
:1047B00020772068C0698007204602D0FFF7B7FF46
:1047C00004E000F0D1F8204600F093F92777E806DE
:1047D00016D5F00614D521686FF010000861082086
:1047E00020772068C06910F4407F204602D0FFF790
:1047F0009EFF04E000F0B8F8204600F07AF9277731
:10480000E80708D0F00706D021686FF001000861C2
:10481000204600F043FA280601D4A80408D5300643
:1048200006D521686FF4025008612046FFF71BFC93
:10483000E80508D5300606D521686FF48070086158
:104840002046FFF70FFC680608D5700606D52168DC
:104850006FF040000861204600F038FAA80608D53D
:10486000B00606D521686FF0200008612046FFF7EA
:10487000FBFBE80208D5F00206D521686FF4801032
:1048800008612046FFF741FCA80208D5B00206D512
:1048900021686FF4001008612046FFF735FC6802BC
:1048A00008D5700206D521686FF4800008612046A3
:1048B000FFF72CFC28020AD5300208D521686FF4D6
:1048C000000008612046BDE8F041FFF7FFBCBDE8ED
:1048D000F0810000F0B587B0044614216846FBF76C
:1048E00042FE1E492068884236D11D48C16C41F005
:1048F0000201C164C16C01F002010591C16C41F07B
:104900000101C164C06C022500F0010005904FF464
:10491000C04000900024CDE901540626114FCDE996
:10492000034669463846FEF7CBFBA8030090CDE965
:1049300001540420CDE9034069463846FEF7C0FB28
:104940004FF4E0600090CDE90154CDE9034669469B
:104950004FF09040FEF7B4FB07B0F0BD002C0140D3
:104960000010024000040048704770B5044690F8FB
:104970003C0000260D4601280BD0012084F83C00A5
:104980000C2A4AD007DC82B1042A20D0082A06D19A
:1049900031E0022070BD102A53D0142A63D00126C2
:1049A000002084F83C00304670BD206801F0D4FF40
:1049B0002068816941F0080181612068816921F0E6
:1049C00004018161206881692A69114311E020682E
:1049D00002F010F82068816941F40061816120686B
:1049E000816921F480618161206881692A6941EAD5
:1049F00002218161D4E7206802F044F82068C1698F
:104A000041F00801C1612068C16921F00401C16160
:104A10002068C1692A69114311E0206802F07AF820
:104A20002068C16941F40061C1612068C16921F455
:104A30008061C1612068C1692A6941EA0221C161BE
:104A4000AEE7206802F0AEF82068016D41F0080181
:104A500001652068016D21F0040101652068016D88
:104A60002A69114311E0206802F0D4F82068016D32
:104A700041F4006101652068016D21F480610165E8
:104A80002068016D2A6941EA0221016588E710B5B5
:104A9000040003D094F83D0010B107E0012010BDE0
:104AA000002084F83C00204600F022F8022084F820
:104AB0003D00211D206801F0C3FE012084F848005C
:104AC00084F83E0084F83F0084F8400084F84100F8
:104AD00084F8420084F8430084F8440084F84500D8
:104AE00084F8460084F8470084F83D00002010BD9B
:104AF0007047704730B50446022269B1042912D0CC
:104B0000082917D00C291CD0102921D094F8430073
:104B1000012824D0012030BD94F83E000128F9D1AD
:104B200084F83E201DE094F83F000128F2D184F87B
:104B30003F2016E094F840000128EBD184F8402093
:104B40000FE094F841000128E4D184F8412008E006
:104B500094F842000128DDD184F8422001E084F875
:104B600043200122206801F0C9FE194B2068194931
:104B7000194A984209D0884207D0904205D0174D73
:104B8000A84202D0164DA84203D1456C45F4004519
:104B90004564206898420CD0B0F1804F09D0114B89
:104BA000984206D0104B984203D0884201D09042E0
:104BB00007D181680D4A1140062906D0B1F5803F22
:104BC00003D0016841F001010160002030BD000008
:104BD000002C0140003401400040014000440140ED
:104BE00000480140000400400008004007000100A8
:104BF00030B504460D460068002201F07FFE224BCE
:104C000041F2111120688A0098420BD01F4B984244
:104C100008D01F4B984205D01E4B984202D01E4B25
:104C2000984209D1036A0B4206D1036A134203D1A9
:104C3000436C23F4004343642068036A0B4206D1AB
:104C4000016A114203D1016821F0010101600120D4
:104C50005DB1042D0CD0082D0DD00C2D0ED0102DD3
:104C60000FD084F84300002030BD84F83E00FAE7FE
:104C700084F83F00F7E784F84000F4E784F8410047
:104C8000F1E784F84200EEE7002C014000340140D7
:104C900000400140004401400048014010B5044676
:104CA00000680749884201D1FEF734FB05492068B6
:104CB000884203D104480168491C016010BD00000E
:104CC000004801400044014000000020704790F877
:104CD0008410012918D0012180F884102421C0F803
:104CE000881001680A680B6823F001030B6022F04A
:104CF000005100224266036819602021C0F8881024
:104D000080F8842010467047022070477047704733
:104D100070B5044690F8840001281DD0012084F865
:104D200084002420C4F8880020680568026822F006
:104D3000010202602068826822F060620A43826099
:104D4000204601F0C3FF206805602020C4F88800D9
:104D5000002084F8840070BD022070BD70B5044648
:104D600090F8840001281DD0012084F884002420BC
:104D7000C4F8880020680568026822F00102026019
:104D80002068826822F060420A438260204601F077
:104D90009DFF206805602020C4F88800002084F86A
:104DA000840070BD022070BD7047704770470000DE
:104DB0002DE9F04103680446D86919689A6840F6FD
:104DC0000F0528424FF000054FF002060AD1870672
:104DD0007ED501F0200702F0805C57EA0C0777D0FF
:104DE000616F42E1B64FDFF8DCC2174001EA0C0CFC
:104DF00057EA0C0C6CD05FEAC07C0CD05FEAC15C57
:104E000009D54FF0010CC3F820C0D4F8903043F01E
:104E10000103C4F89030830709D5D30707D023686E
:104E20001E62D4F8903043F00403C4F89030430776
:104E30000AD5D30708D0266804233362D4F890300B
:104E400043F00203C4F8903003070CD501F02003AF
:104E50003B4308D0266808233362D4F8903043F0EF
:104E60000803C4F8903003050BD54B0109D526681B
:104E70004FF400633362D4F8903043F02003C4F859
:104E80009030D4F89030002B3DD0800609D501F049
:104E9000200002F08051084303D0616F09B1204621
:104EA0008847D4F8900021688968490602D410F038
:104EB000280F2AD0204602F03BF820688068400680
:104EC0001ED52068083050E8001F21F0400100E0A6
:104ED00021E040E80012002AF3D1D4F8800078B134
:104EE00079498163D4F88000FDF7ADFB00280AD032
:104EF000D4F88000816B00E02046BDE8F04108470F
:104F00002046FFF753FFBDE8F0812046FFF74EFF34
:104F1000C4F89050F7E7D4F86CC02027BCF1010F1B
:104F20007ED15FEAC06C7BD55FEAC16C78D510207A
:104F3000186220688068400651D5D4F880100A684D
:104F400050680004000C3ED0B4F85C3083423AD97B
:104F5000A4F85E000868006880062CD4216851E837
:104F6000000F20F4807041E80002002AF6D120688A
:104F7000083050E8001F21F0010140E80012002A2B
:104F8000F5D12068083050E8001F21F0400140E8CA
:104F90000012002AF5D1C4F88C70E566216851E84A
:104FA000000F20F0100041E80002002AF6D1D4F8EA
:104FB0008000FDF713FB2667B4F85C00B4F85E10C0
:104FC000401A81B207E0B4F85C1081429BD11068AE
:104FD000800698D526672046FFF798FE93E7B4F839
:104FE0005C00B4F85E10401A81B2B4F85E0000288C
:104FF00089D0002987D0226852E8000F20F49070F1
:1050000042E80003002BF6D12D4BDB43206808302B
:1050100050E8002F1A4040E8002CBCF1000F00E0DF
:105020000EE0F3D1C4F88C70E5666567206850E83F
:10503000002F22F0100240E80023002BF6D1C9E730
:10504000C60209D5560207D54FF4801018622046D3
:10505000BDE8F041FFF7A9BE03060AD501F08003C1
:1050600002F40002134304D0A16F00297FF444AF7F
:1050700049E7420611D54A060FD52046016851E896
:10508000002F22F0400241E80023002BF6D1C0F8A7
:105090008870856700F012F935E7020206D54A00EC
:1050A00004D52046BDE8F041FFF77EBEC00195D58E
:1050B000002993DA2046BDE8F041FFF728BE000042
:1050C0000100001020010004856E000810B50400E6
:1050D00003D0D4F8880010B107E0012010BD0020F3
:1050E00084F88400204600F027F82420C4F88800C3
:1050F0002068016821F001010160A06A10B120461A
:1051000001F006FE204601F055FF0128E6D0206898
:10511000416821F4904141602068816821F02A01B2
:1051200081602068016841F0010101602046BDE80E
:10513000104001F051BE0000F0B597B006461421B2
:1051400011A8FBF710FA44216846FBF70CFA324924
:10515000306888425DD104200024009003946846A2
:10516000FEF7D2FA08B1FCF711F82C48816D41F432
:1051700080218165816D01F480211691C16C41F01F
:105180000201C164C06C11A900F0020016904FF436
:10519000406011900220CDE912040720CDE91440AF
:1051A0001F48FDF78DFF204D1E48802728601C20DA
:1051B000C5E90104C5E903476C61AC61EC612846AF
:1051C0002C62FDF7D9FA08B1FBF7E0FFC6F8805072
:1051D000AE62154D13486035143028601D2068609C
:1051E00005F10801102081E891006C61AC61EC616F
:1051F00028462C62FDF7C0FA08B1FBF7C7FFF56738
:10520000002205212720AE62FEF70CF92720FEF7C9
:10521000FBF817B0F0BD000000480040001002404D
:1052200000040048080002409007002070B50446C2
:10523000D0F88800202801D0022070BD39B332B3E5
:105240002165A4F85420A4F856200021C4F8901039
:105250002120C4F88800E06FD8B1154BC362E36F1A
:1052600014481863E36F14485863E06F1346816372
:105270002068E56F00F128022846216DFDF7DCFA71
:1052800038B11020C4F890002020C4F88800012014
:1052900070BD2168402008622068083050E8001F77
:1052A00041F0800140E80012002AF5D1002070BDD5
:1052B000E56E0008276F0008956E0008704770477C
:1052C0000C489FED0B0A002180ED020A9FED0A0AAF
:1052D000416180ED0A0A9FED090A80ED0B0A9FEDFE
:1052E000080A80ED0F0A9FED070A80ED0E0A70474D
:1052F0009A99194018020020660648447B14CE3E55
:1053000000401C4600401CC690ED144AF0EE001A06
:10531000B0EE402AD0ED162A04EE612AB0EE603AD3
:10532000B5EEC01A32EE222AF5EE002A22EE222A2B
:1053300080ED062AD0ED153A03EEE13AD0ED171ACA
:1053400073EE211A61EEA21AC0ED071A90ED083A29
:10535000D0ED092AF1EE10FA06DD32EE431A80EDA7
:10536000001A31EEE21A05E033EE421A80ED001A1F
:1053700032EEE11A80ED011A80ED164A80ED140A32
:10538000C0ED173AC0ED150A80ED082AC0ED091AE4
:1053900090ED031A90EC020A2830B1EE400A00F0BA
:1053A00014BE0000D0ED020A70EE800AC0ED020AC1
:1053B00090ED011AD0ED071A61EE200A90ED001A67
:1053C00041EE000A90ED061A31EE611ADFED0E1A79
:1053D00041EE610AC0ED060A90ED051AF4EEC10A2D
:1053E000F1EE10FA06DC90ED041AF4EEC10AF1EECB
:1053F00010FA02D280ED071A01E0C0ED070A80ED35
:10540000030A90ED070A70470AD7233CFEE7002203
:105410000270427080ED010AC0ED020AC0E9031279
:105420000275427570474178002219B142750261D8
:1054300002757047017821B1417D29B1D0ED020A92
:1054400004E0427502617047D0ED010AF4EEC00A33
:10545000F1EE10FA01D8012100E00021037D8B421A
:1054600002D00261017505E0D0E903329A4201D20F
:10547000521C0261C3689A42E5D34175704700EB44
:105480008100006E00F0F840704700EB8100006E74
:1054900000F0F84070478068C0F3C0007047806833
:1054A000C0F3C00070478068C0F380007047806818
:1054B000C0F380007047C06810F4406F01D0002036
:1054C000704701207047042303EAD15310B51844F4
:1054D0004369C1F3045107248C40A3438A4013431A
:1054E000436110BD042303EAD15310B51844436946
:1054F000C1F3045107248C40A3438A401343436102
:1055000010BD00EB8100016E21F0004111430166E6
:10551000704700EB8100016E21F0004111430166EC
:1055200070470000DFED090A094901E030EE600A2A
:1055300010EE100A8842F9DC064900BF10EE100A8E
:10554000884202D930EE200AF8E77047DA0FC940E6
:10555000DA0FC940DA0FC9C010B504460068B0EED2
:10556000401A90ED000AB4EEC10AF1EE10FA01DB28
:1055700060680EE0A1686FF0030202EB81028318FD
:1055800093ED000AB4EEC10AF1EE10FA04D8606897
:10559000104490ED000A10BDB0EE410A01F0B0FEDB
:1055A000226802EB8001D1ED000A616801EB800303
:1055B00031EE601A93ED000A042303EB80000244ED
:1055C0000844D2ED001A90ED002A71EEE01A32EE96
:1055D000402A22EE011AC1EE210A30EE800A10BDE7
:1055E000064810B50078064C012803D00020FBF7D0
:1055F00087FA002084F8AD00002010BD8902002049
:10560000D800002070B513488169491C8161036886
:10561000C26864291344C360446802692244026179
:10562000856844692C44446111D3B3FBF1F3B2FBA8
:10563000F1F2B4FBF1F1C0E9033241610021816173
:105640000549032081F8AD000120FBF759FA00203D
:1056500070BD000078210020D80000200A480078A2
:1056600001280FD1094A0220094982F8AD00002023
:10567000C860086148619FED070A886182ED050AEC
:1056800082ED0D0A0020704789020020D80000201A
:1056900078210020000000002D4810B5C268016884
:1056A0009FED2C1A891A00EE101A2B4CB8EEC00A86
:1056B00020EE010A84ED200A02694168891A00EE91
:1056C000901A04F1A002F8EEE00A60EE810AC4ED3F
:1056D000210A81684069081A01EE900A1F48111FCB
:1056E000F8EEE11A21EE811A84ED221AD0ED001AAB
:1056F000081FFBF78FFA1A481A4A016A1A489142A2
:1057000002DA1A490978C9B194ED260A0268BCEE9A
:10571000C00A10EE101A516394ED270A0268BCEE1D
:10572000C00A10EE101A916394ED280A0068BCEECE
:10573000C00A10EE101AC163002010BD02680021DB
:105740005163026891630068C16384F8AD10F3E7A8
:10575000782100200000B43CD80000203400002054
:1057600010030020000016441806002089020020C3
:1057700030B593B000240F9410943C2168461194E6
:10578000FAF7F1FE29484FF0A041042501604FF4DB
:105790004031C0E9011485610121C460C0E90441C0
:1057A00004774477016280F8244080F83840C4636D
:1057B00080F84040FCF794FC08B1FBF7E7FC0FA928
:1057C0001A480F94FCF7D0F808B1FBF7DFFC184833
:1057D00000900920019002AA02207F21059482E80E
:1057E0002300089084200A908DF824404FF48070A4
:1057F0008DF825400B908DF826408DF83040694695
:105800000A48FBF755FD08B1FBF7C0FC09480090BA
:1058100040F20F10019069460448FBF749FD00284B
:1058200001D0FBF7B3FC13B030BD0000280400200A
:105830000800900C00106032F0B597B03C2168462B
:10584000FAF791FE20210FA8FAF78DFE2848274984
:10585000002401604FF44031C0E90114C460042504
:105860000461C0E90545047744770126066280F8A3
:105870002440C462046380F83840C46380F8404028
:10588000FCF72EFC08B1FBF781FC1A48009001A937
:1058900009207F2781E8C100CDE9045484200A90C3
:1058A0008DF824404FF480708DF825400B900896B9
:1058B0008DF826408DF8304069460D48FBF7F8FC1E
:1058C00008B1FBF763FC0C480F9010A9062081E893
:1058D000A100CDE913540FA90548FCF7B1F8002841
:1058E00001D0FBF753FC17B0F0BD000000010050E1
:1058F000940400200800900C02003004114808B500
:10590000816C41F004018164816C01F0040100911B
:10591000816C41F001018164806C002200F0010083
:10592000009005210B20FDF77DFD0B20FDF76CFDA0
:10593000002205210C20FDF775FDBDE808400C2074
:10594000FDF762BD0010024030B5204887B01E4907
:10595000016008210024C0E90114C4600474447487
:10596000847401250A214561C0E906510922C0E974
:105970000825C0E90A5107210163C0E90D54C46339
:10598000FDF7C2F908B1FBF701FC18216846FAF7E8
:10599000EAFD022003950094CDE9014040F2FF703A
:1059A000CDE9044069460948FDF733F808B1FBF733
:1059B000EDFB002201210548FCF796FF0348FDF7A7
:1059C00020FB07B030BD000000640040000500204F
:1059D0007CB53548FDF71CFE3448FDF719FE344808
:1059E000FDF716FE7F213348FBF716FC7F21324876
:1059F000FBF712FC2F4920200A6810600968042276
:105A00000A602D49096808602A48FBF717FF2A48F1
:105A1000FBF714FF294840F69F710268D162C1600C
:105A2000006840F63C7101642448FEF7C3FCFBF7B4
:105A3000A3F800212148FFF75DF804211F48FFF774
:105A400059F808211D48FFF755F800211B48FEF7BB
:105A5000ADFB04211948FEF7A9FB08211748FEF702
:105A6000A5FB0C211548FFF745F800F051FDFBF7A9
:105A700083F8134A0021134801F07EFE12490024E6
:105A800018258860CDE90054234680220FA11248D2
:105A900003F070F8CDE9005400234FF480720FA199
:105AA000114803F067F87CBD64050020A0050020C4
:105AB000DC050020280400209404002018060020A3
:105AC000D496000831670008280000206D795F74C3
:105AD00061736B3100000000757600086D795F74AA
