:020000040800F2
:10000000982900207903000817550008D34C0008F0
:1000100015550008E9080008FD640008000000000C
:10002000000000000000000000000000B90200080D
:10003000A10E00080000000015030008415A000846
:100040009303000893030008930300089303000838
:100050009303000893030008930300089303000828
:10006000930300089303000893030008450C00085D
:10007000510C000893030008930300089303000841
:100080009303000800000000010800089303000823
:100090009303000809110008151100086B0F0008F0
:1000A000D55A0008155B0008E95A000893030008B8
:1000B00093030008930300089303000893030008C8
:1000C00093030008930300089303000893030008B8
:1000D000930300089303000893030008F1640008E9
:1000E0004D0F0008930300089303000893030008D2
:1000F0009303000893030008930300080000000026
:1001000000000000930300080000000093030008B3
:100110009303000800000000930300089303000805
:100120009303000893030008930300089303000857
:100130009303000800000000000000009303000883
:100140009303000893030008000000000000000073
:10015000000000000000000000000000000000009F
:1001600000000000000000000000000093030008F1
:1001700093030008000000000000000000000000E1
:1001800000000000930300080000000000000000D1
:10019000000000000000000000000000000000005F
:1001A0000000000000000000930300089303000813
:1001B0009303000893030008930300080000000065
:1001C0000000000093030008000000000000000091
:1001D000930300089303000800F002F800F05CF8B5
:1001E0000AA090E8000C82448344AAF10107DA4592
:1001F00001D100F051F8AFF2090EBAE80F0013F088
:10020000010F18BFFB1A43F001031847948E00003A
:10021000B48E00000A444FF0000C10F8013B13F0BC
:10022000070408BF10F8014B1D1108BF10F8015B4F
:10023000641E05D010F8016B641E01F8016BF9D142
:1002400013F0080F1EBF10F8014BAD1C0C1B09D199
:100250006D1E58BF01F801CBFAD505E014F8016B0B
:1002600001F8016B6D1EF9D59142D6D3704700009D
:100270000023002400250026103A28BF78C1FBD8AF
:10028000520728BF30C148BF0B6070471FB508F048
:10029000ACFA1FBD10B510BD00F0E3F91146FFF731
:1002A000F5FF06F0A9F900F001FA03B4FFF7F2FF39
:1002B00003BC00F009FA00002C4B19680868B0E88C
:1002C000F04F80F30988BFF36F8F4FF0000080F389
:1002D000118870470000000008480068006880F33B
:1002E00008884FF0000080F3148862B661B6BFF34F
:1002F0004F8FBFF36F8F00DF00BF00BF08ED00E03E
:10030000DFF80C00016841F470010160704700BF24
:1003100088ED00E0EFF30980BFF36F8F134B1A688D
:100320001EF0100F08BF20ED108A20E9F04F10607A
:1003300009B44FF0500080F31188BFF34F8FBFF323
:100340006F8F07F05BF84FF0000080F3118809BC55
:1003500019680868B0E8F04F1EF0100F08BFB0EC45
:10036000108A80F30988BFF36F8F70471C0000204C
:10037000EFF30580704700000948804709480047AF
:10038000FEE7FEE7FEE7FEE7FEE7FEE7FEE7FEE745
:10039000FEE7FEE704480549054A064B70470000A2
:1003A000C55A0008D9010008982300209829002088
:1003B000982500209825002053EA020C00F069805F
:1003C0002DE9F04B4FF00006002B1FBFB3FA83F569
:1003D00003FA05F424FA05F65E4012BF1643B2FA9A
:1003E00082F502FA05F4C5F120051EBF22FA05FCCC
:1003F00044EA0C04203556EA044C4FEA144418BF72
:10040000641C4FF000084FF00009904271EB030CA0
:1004100039D3002919BFB1FA81F701FA07F6B0FA0A
:1004200080F700FA07F6C7F120071EBF20FA07FC85
:1004300046EA0C062037B6FBF4FCA7EB0507103F95
:1004400007F01F0BCBF120060CFA0BFB2CFA06F67B
:1004500044BFB3460026202FA4BF5E464FF0000BDA
:100460005BEA060C08BF4FF0010B19EB0B09ABFB65
:10047000027C48EB0608C01B06FB02CC0BFB03CC3E
:1004800071EB0C01C1E70B46024641464846BDE808
:10049000F08B13B54FF000004FF00001AFF3008078
:1004A000BDE81C407047B2F120030AD5C2F1200319
:1004B00001FA02F120FA03F300FA02F041EA030123
:1004C000704700FA03F14FF000007047032A40F232
:1004D000308010F0030C00F0158011F8013BBCF1E6
:1004E000020F624498BF11F801CB00F8013B38BFFE
:1004F00011F8013BA2F1040298BF00F801CB38BF0C
:1005000000F8013B11F0030300F05780083AC0F0F7
:10051000088051F8043B083A51F804CBA0E80810D1
:10052000F5E7121D5CBF51F8043B40F8043BAFF304
:100530000080D20724BF11F8013B11F801CB48BF5E
:1005400011F8012B24BF00F8013B00F801CB48BF94
:1005500000F8012B704702F0FF0343EA032242EA4E
:10056000024200F05EB84FF0000200B51346944618
:100570009646203922BFA0E80C50A0E80C50B1F1FB
:100580002001BFF4F7AF090728BFA0E80C5048BF0F
:100590000CC05DF804EB890028BF40F8042B08BFAD
:1005A000704748BF20F8022B11F0804F18BF00F8A9
:1005B000012B704770477047704710B5203AC0F064
:1005C0000B80B1E81850203AA0E81850B1E8185054
:1005D000A0E81850BFF4F5AF5FEA027C24BFB1E891
:1005E0001850A0E8185044BF18C918C0BDE8104002
:1005F0005FEA827C24BF51F8043B40F8043B08BF0B
:100600007047D20728BF31F8023B48BF11F8012BD1
:1006100028BF20F8023B48BF00F8012B70474FF07D
:1006200000020429C0F0128010F0030C3FF49DAFCB
:10063000CCF1040CBCF1020F18BF00F8012BA8BFCD
:1006400020F8022BA1EB0C01FFF78FBF5FEAC17C02
:1006500024BF00F8012B00F8012B48BF00F8012B44
:100660007047754600F02CF8AE46050069465346C3
:1006700020F00700854618B020B5FFF78BFEBDE8D7
:1006800020404FF000064FF000074FF000084FF0F9
:10069000000B21F00701AC46ACE8C009ACE8C0098A
:1006A000ACE8C009ACE8C0098D46704710B50446F7
:1006B000AFF300802046BDE81040FFF7F6BD000014
:1006C000004870473423002001491820ABBEFEE7E4
:1006D00026000200704700009FED221A9FED222A9B
:1006E00020EE010AB5EE001A30EE010ABDEEC01A86
:1006F00011EE100AB5EE400AF1EE10FAB8BF01385B
:1007000001EE100AB8EEC11A30EE410A20EE020ADC
:10071000BDEEC01A9FED152A11EE100A002130EE31
:10072000021AB1EB502F48F69C011CBF0020B0EE1E
:10073000410AC0F6000101EE100A01EB8001B8EE9B
:10074000411A30EE410A91ED001A91ED012AB7EEFF
:10075000003A33EE403A23EE011A20EE020A31EE5F
:10076000000A704783F9223E00000044000000C4E4
:100770009FED201A9FED202A20EE010ABDEEC01A3F
:1007800011EE100AB5EE400AF1EE10FAB8BF0138CA
:1007900001EE100AB8EEC11A30EE410A20EE020A4C
:1007A000BDEEC01A9FED152A11EE100A002130EEA1
:1007B000021AB1EB502F48F69C011CBF0020B0EE8E
:1007C000410AC0F6000101EE100A01EB8001B8EE0B
:1007D000411A30EE410A91ED001A91ED012AB7EE6F
:1007E000003A33EE403A23EE011A20EE020A31EECF
:1007F000000A704783F9223E00000044000000C454
:1008000010B5044801F020FABDE81040024801F09C
:100810001BBA000054010020C001002010B50021C7
:100820000C4803F005FF04210A4803F001FF0821EA
:10083000084803F0FDFE0021064803F07BFA04217E
:10084000044803F077FABDE810400821014803F09E
:1008500071BA00004403002010B500210C4803F0D9
:1008600069FE04210A4803F065FE0821084803F0E8
:1008700061FE0021064803F001FA0421044803F058
:10088000FDF9BDE810400821014803F0F7B9000068
:100890004403002011489FED120A1249D0ED000ACE
:1008A0000B6860EE800AFCEEE00A10EE902A5A63B4
:1008B000D0ED010A0B6860EE800AFCEEE00A10EE53
:1008C000902A9A63D0ED020A096820EE800ABCEEF5
:1008D000C00A10EE100AC86370470000C41E002052
:1008E0000000FA4544030020FEE738B50C46050039
:1008F00018D0002C16D00021216061600B460091B9
:100900000122072105F00BFE07F0FCFE206001200C
:100910000090002310221721284605F000FE07F062
:10092000F1FE606038BD000070B5A14CA14E2DED08
:10093000048B20683168B0FBF1F094F8D8109FED7B
:100940009E8A88421DD8002084F8D80094ED350A8C
:10095000F6EE000A60EE200A9FED981AA06880EE7D
:10096000810A90ED001AC0EE010A9FED950A20EE73
:10097000800AF3EE040A80EE201A86ED091A84ED4F
:10098000358A14F8D80F401C04F81C098D4894EDE2
:10099000060AD0ED0B0A30EE200A84ED060A00F0BC
:1009A000F1FA04F0C7FF824D54ED070A703D54ED93
:1009B000091A95ED020A05F58272111F30EE601AD0
:1009C00095ED010A54ED080A237D081F70EE600AB8
:1009D00095ED000A30EE610A04F046FE14ED0A0AB5
:1009E00005F03EFEB0EE409A14ED0B0A05F038FE1D
:1009F000F0EE408A14ED0C0A05F032FEB0EE491A12
:100A0000F0EE680A04F05EFE694914ED0C0A54ED3C
:100A10000B0A084681ED210A9FED6B1A60EE011A60
:100A20009FED6A0A40EE801AC0ED221A14ED0E1AEC
:100A300054ED120A14ED130A624804F06DFD14ED32
:100A40000F0AFFF795FE04ED110A14ED0F0AFFF7E8
:100A500043FE04ED100A54ED0E1A14ED0D1A54ED78
:100A6000110A21EE802A21EE000A514901EE202AC6
:100A700001EEE00A084681ED192A80ED1A0A96ED8A
:100A8000050A0C3004ED180AD6ED040A44ED170AE5
:100A900054ED160A30EE600A04F0E9F804ED1A0A83
:100AA00014ED170A54ED150A05F1A00030EE600AA6
:100AB00004F0DDF804ED190A14ED160A54ED150AD8
:100AC000BC3C20EE000A05F1DC0000EEA00AB5EE09
:100AD000C00AF1EE10FA04DBF1EEC00AC0ED000A24
:100AE00001E080ED008AD4ED151AD4ED1F0A94EDD3
:100AF0001E1A94ED160A21EEA02A61EE811A2C49E5
:100B000000EE412A40EE201A084600F1D00300F121
:100B1000B00281ED1C2AC0ED1D1A94ED1C1AD5ED12
:100B2000030AAC31A830B7EE000A04F03BFE95EDA5
:100B3000030ADFED270A1E4820EE200ADFED250A12
:100B4000483020EE200A84ED090AF1EE400AC4ED97
:100B5000080A20EE000AD4ED150A00EEE00AB5EE10
:100B6000C00AF1EE10FA04DBF1EEC00AC0ED000A93
:100B700001E080ED008A94ED120A174804F1A80103
:100B8000B1EE400A84ED110AD0ED161A90ED151A57
:100B9000D4ED1A0A94ED190A054A91EC032A583A41
:100BA000111FBDEC048B081FBDE8704000F088B831
:100BB000241F0020DC21002000000000DB0F494042
:100BC00000007042E82000203ACD133F3ACD933F19
:100BD000ABAA2A3F5C8F823F34200020124810B518
:100BE0000079124C032809D0002084F8D10000F0CD
:100BF0001FF854F8DC0F401C206010BD94F8D100A1
:100C000040B1012809D002280AD00328F1D104F00C
:100C100079F9EEE704F0CAF8EBE704F051F9E8E7F8
:100C200004F008F9E5E7000040010020241F00203F
:100C3000012803D0002803D1FFF7F0BDFFF70CBE59
:100C400070470000014801F02CBB0000BC040020EC
:100C5000014801F026BB00001C0500200D49026878
:100C60008A4201D20C4901E00B492031D2B214234F
:100C7000083AB2FBF3F2436C02F01F0223F00303C5
:100C80001944816404498031C164012191400165A6
:100C90007047000008040240000802400179074A3A
:100CA00002EB81024265054A4432491E826501F029
:100CB0001F0201219140C16570470000FC080240FD
:100CC0002DE9F04714462DED0A8B0D460646B0EE91
:100CD000439AF0EE629AB0EE42AAB0EE41CAB0EE8C
:100CE000608AF0EE408A9FED660AB0EE001A2CEEA4
:100CF000000A40EE011AB0EE61BAB0EE4B0AFFF7FF
:100D000037FDF0EE40AAB0EE4B0AFFF7E5FC68EEC7
:100D1000801A28EEAA2A48EE6A1A08EE002ABEEEC9
:100D2000000A61EE80BA9FED570A1CEE100A564980
:100D300042EE00BA88427DDD11EE900ADFF84CA148
:100D4000534F4FF07E59B7EE00BA9FED528BDFED57
:100D500053AA50450FDD1AEE100A07F0A5FC53EC1C
:100D6000182B07F0B9F807F085F8306048451EDD0C
:100D700086ED00BA1BE011EE900AB84215D91AEEC2
:100D8000100A07F091FC53EC182B07F0A3FB07F0B7
:100D900071F800EE100A86ED000AB5EEC00AF1EE19
:100DA00010FA04D2C6ED00AA01E086ED00AA1BEEFF
:100DB000900A5646B0420FDD19EE900A07F074FC17
:100DC00053EC182B07F088F807F054F828604845D2
:100DD0001EDD85ED00BA1BE01BEE900AB84215D966
:100DE00019EE900A07F060FC53EC182B07F072FB29
:100DF00007F040F800EE100A85ED000AB5EEC00AD3
:100E0000F1EE10FA04D2C5ED00AA01E0C5ED009A9A
:100E1000B04514DD19EE100A07F046FC53EC182B10
:100E200007F05AF807F026F82060484501DD84ED08
:100E300000BA00E01EE0BDEC0A8BBDE8F087B845C3
:100E400015D919EE100A07F02FFC53EC182B07F0F8
:100E500041FB07F00FF800EE100A84ED000AB5EE32
:100E6000C00AF1EE10FAE4D2C4ED00AAE1E784ED85
:100E7000009ADEE786ED00AAC5ED009AF7E70000CC
:100E800017B75138D7B35D3F7A1F4B49CDCCCC3D16
:100E9000CDCCCCBD763D8AF851B88E3F0000000025
:100EA0007047000090ED043A016AF7EE003A31EE27
:100EB000433AD1ED082A90ED024A62EE832A82EE8F
:100EC000823AD0ED072A73EEE23A23EE223A04EE9C
:100ED000233A80ED023AD0ED054A91ED084A71EED1
:100EE000E44A24EE244AC4EE024A24EEA22AD0EDBB
:100EF000032A02EEA32A80ED032AD1ED052A01EE92
:100F0000620A30EE430A80ED000AD1ED052A20EE98
:100F1000000A41EEE20A70EEC20AC0ED010A00EEDC
:100F2000A00A80ED041AC0ED051AB5EEC00AF1EE74
:100F300010FA04DBF1EEC00AC0ED060A70479FED1F
:100F4000020A80ED060A70470000000010B54FF459
:100F5000806001F027FE4FF4006001F023FEBDE841
:100F600010404FF4005001F01DBE4FF4807001F0AE
:100F700019BE00000249002009684862704700005D
:100F80009003002010B52DED088B06F043F8534C6C
:100F9000B0EE00AAA18A401A81B2A184DFED50AA66
:100FA000A06DB1EE00BA814200D9091AB1FBF0F28E
:100FB00000FB121100EE101AB8EE400A20EE0A0AE9
:100FC00060EE2A0A00EE100AB8EE401A80EE810A9E
:100FD00020EE0B0A84ED010A03F0CEFE84ED010A37
:100FE000E0694049401CE06109680968A28CC906B3
:100FF000E18C09D48A4204D2511A01F57A41226A5D
:1010000008E0511A226A05E08A42FAD9511A226A86
:10101000A1F57A4111442162A169884259D300EEB9
:10102000100AD4ED000AB8EE400A20EE800A10EE55
:10103000100A07F039FB94ED160A41EC190BB8EED3
:10104000400A10EE100A07F02FFB94ED080A41EC5D
:10105000180BB8EEC00A10EE100A07F025FB9FED42
:10106000221B53EC112B07F037F99FED211B53EC9A
:10107000112B07F031F953EC182B06F0D5FF53EC88
:10108000192B06F0D1FF41EC180B206907F00CFB7F
:101090009FED191B53EC112B07F01EF953EC182B85
:1010A00006F01AFF06F0E6FE00EE100ADFED141A55
:1010B00084ED030A60EE0A0A002020EEAA1AC1EEAF
:1010C000210A60EE8B0AC4ED020A84ED040A206254
:1010D000E061A08CE084BDEC088B10BD682100208D
:1010E000DB0F494090030020333333333333D33F96
:1010F0000000000000004E40666666666666E63FD9
:101100000000704272B6FEE7014801F0D0BA00005C
:101110002C020020014801F0CABA00002C02002075
:10112000704700002DE9F84F4FF000080446CDF855
:1011300000800D4694F85820DFF8EC93616947462B
:101140004046012A0AD00126F84A84F8586041B185
:10115000296A012905D0A36EEBB129E00220BDE880
:10116000F88F6868092838D1A96A4FF4785041B1DE
:101170002B6801F07C0100EA53400843E96A084308
:1011800002E0296800EA51402168CB6C1340034318
:10119000CB64606621E0C4E91971A96A286A31B19B
:1011A00001F07C01401E0843E96A084300E0401E4C
:1011B00029682B79C1F3846103F01F03994001432F
:1011C000A06E401EA066636E43EA0103636604D10D
:1011D0002068C16C11401943C164206803F08AFD86
:1011E00058B995F8250098B12068C16895F826206F
:1011F00021F4401141EA4251C160206803F082FDB0
:101200008246206803F076FD5AEA00000DD0FBE02C
:1012100095F8260095F82410400540EA0151206811
:10122000C26822F440121143E6E7A86A30B1E86AC6
:1012300020B195F8250001285ED003E095F825003F
:10124000012804D02068C16821F0007103E0206803
:10125000C16841F00071C16095F83000012852D09A
:101260002068016921F002010161AA6829682068EB
:10127000B2F1004F38D003F060FD2068416921F0E1
:101280000041416120686969C268C2F3C10252002D
:1012900091402A69042A44D000EB82002B68026E38
:1012A000DFF88CC203F0F84302EA0C020B431A4346
:1012B00042F00041016620682A69A96900EB8200BA
:1012C000026E22F080720A430266297F2268286932
:1012D000012923D05FF0000102EB8000026E22F0B2
:1012E00000720A4302668FE0002203F026FD2068A8
:1012F000416941F00041C4E7E06D40F02000E06545
:101300004FF00108A8E7D5E90D10014320680269F4
:1013100022F4FF7242F002021143A5E74FF0007180
:10132000DAE7002103F0DCFC400320684FF0000105
:1013300072D003F0D5FC90FAA0F0B0FA80F12868E2
:1013400042036ED090FAA0F0B0FA80F0814204D14E
:1013500000221146206803F007FD0121206803F0F8
:10136000BFFC400320684FF001015DD003F0B8FCE2
:1013700090FAA0F0B0FA80F12868420359D090FAB0
:10138000A0F0B0FA80F0814204D10022012120684F
:1013900003F0EAFC0221206803F0A2FC400320686D
:1013A0004FF0020148D003F09BFC90FAA0F0B0FA95
:1013B00080F12868420344D090FAA0F0B0FA80F09F
:1013C000814204D100220221206803F0CDFC0321D8
:1013D000206803F085FC400320684FF0030133D000
:1013E00003F07EFC90FAA0F0B0FA80F12868420386
:1013F0002FD090FAA0F0B0FA80F0814204D1002200
:101400000321206803F0B0FC2068816811F0010F0F
:1014100022D0B6E000E004E003F062FCC0F3846197
:101420008DE7C0F3846091E703F05AFCC0F3846158
:10143000A2E7C0F38460A6E703F052FCC0F3846126
:10144000B7E7C0F38460BBE703F04AFCC0F38461F4
:10145000CCE7C0F38460D0E72A7B296850F8B03F1E
:10146000C1F3120C23EA0C0302F0180C314A22FAE1
:101470000CF20A4013430360E96849457ED12868AD
:1014800041031CD090FAA0F1B1FA81F1491C01F09E
:101490001F0109294FEA403132D8002912D000BF7C
:1014A00090FAA0F1B1FA81F101F1010101F01F01FF
:1014B00006FA01F609D100BFC0F3846109E0C0F368
:1014C0008461E3E7C0F38461EEE790FAA0F1B1FA3A
:1014D00081F101F1010101F01F0146EA816102D1B0
:1014E000C0F3846003E090FAA0F0B0FA80F000F15D
:1014F000010000F01F0000EB400041EA00513AE01B
:1015000000290ED090FAA0F1B1FA81F101F10101A8
:1015100001F01F0106FA01F60ED100BFC0F384618D
:101520000EE0C0F38461F1E700007F40004010044A
:1015300000F0FF03FFFF070090FAA0F1B1FA81F17C
:1015400001F1010101F01F0146EA816102D1C0F3FE
:10155000846003E090FAA0F0B0FA80F000F101009E
:1015600000F01F002B4A00EB400002EB005041EA64
:10157000000141F00071AA68206800E001E003F07A
:10158000DCFB25482A68024240D024488168244B6D
:1015900001F0E0719A4202D0224B9A421BD10B0219
:1015A00019D42268B2F1A04F30D1826841F4000111
:1015B00022F0E0720A4382601B481C490068B0FBBD
:1015C000F1F0801C00EB4000800000E0401E009025
:1015D0000028FBD11AE0164D164BAA4207D1CD01C7
:1015E00005D422689A4211D041F0807109E0124D71
:1015F000AA420BD14A0209D422689A4206D041F489
:101600008001826822F0E0720A43826084F8587098
:101610004046A4E5000020FE0000088000030050C2
:10162000000021C31000C09018000020400D0300EE
:10163000000052C700010050000084CB70B5006864
:10164000B0F1A04F54D109212A4800F063F800EE10
:10165000100A294C0921B8EE400A284884ED000AF6
:1016600000F058F800EE100A40F20F152946B8EEC7
:10167000400A204884ED010A00F04CF800EE100A00
:1016800029461E48B8EE400A84ED020A00F042F8EE
:10169000E060D4ED000A9FED1A0A01EE100A1A4824
:1016A00070EEC01ADFED170A61EEA01AC0ED001A45
:1016B000D4ED011A71EEC01A61EEA01AC0ED011A44
:1016C000D4ED021A31EEC00A20EE200ADFED0F0A37
:1016D00080ED020AB8EE410A20EE200ADFED0C0A86
:1016E00020EE200A80ED030ABDE87040FFF776BACD
:1016F00070BD000054010020A41E0020C001002085
:10170000000000450000B43CB41E0020CDCC8C3F4E
:10171000B18BA23C0068A1F580710F390ED0B1F5F4
:10172000837F08D0B1F5037F02D0D0F880007047E6
:10173000D0F88C007047D0F888007047D0F884004B
:1017400070477047704770472DE9F047044690F89E
:1017500058009CB00E464FF00009012815D001201A
:1017600084F8580000251795189520684FF0A04878
:1017700040450ED1284F0097384603F0C3FA824601
:10178000206803F0BFFA60B10EE002201CB0BDE893
:10179000F087E06D40F02000E06584F858500120AB
:1017A000F4E7BAF1000F09D0E06D40F02000E065E9
:1017B0004FF0010984F858504846E7E71748326867
:1017C00040F61F71002A826822F4604216D094F815
:1017D000383042EA433273681A438260D8F80820EE
:1017E000BB6802F0010203F001031A43E2D1B368BF
:1017F00032681A4383688B431A430BE08260D8F83F
:101800000820BB6802F0010203F001031A43D1D1A2
:1018100082688A438260CDE70001005000030050D7
:101820002DE9F84F00270446009790F85800DFF89C
:10183000E0930D46B846012811D0012684F858607F
:10184000206803F05BFA60B1E06D40F02000E065D5
:101850005FF0010784F858803846BDE8F88F022011
:10186000FBE7D5E900210C23206803EA9113184413
:10187000036B01F01F014FF01F0C0CFA01FCC2F3C7
:10188000846223EA0C038A4013430363206803F055
:1018900035FA8246206803F029FA5AEA00003CD162
:1018A000AA6829682068B2F1004F37D003F036FAF1
:1018B0002068416921F00041416120686969C2687E
:1018C000C2F3C102520091402A69042A31D000EBD0
:1018D00082002B68026EDFF83CC303F0F84302EA93
:1018E0000C020B431A4342F00041016620682A694A
:1018F000A96900EB8200026E22F080720A43026640
:10190000297F22682869012910D0002102EB80007C
:10191000026E22F000720A4302667DE0002203F0AC
:10192000FDF92068416941F00041C5E74FF00071C1
:10193000ECE7002103F0CEF9400320684FF00001EE
:1019400072D003F0C7F990FAA0F0B0FA80F12868DD
:1019500042036ED090FAA0F0B0FA80F0814204D138
:1019600000221146206803F0F7F90121206803F0F6
:10197000B1F9400320684FF001015DD003F0AAF9EE
:1019800090FAA0F0B0FA80F12868420359D090FA9A
:10199000A0F0B0FA80F0814204D100220121206839
:1019A00003F0DAF90221206803F094F9400320687B
:1019B0004FF0020148D003F08DF990FAA0F0B0FA90
:1019C00080F12868420344D090FAA0F0B0FA80F089
:1019D000814204D100220221206803F0BDF90321D5
:1019E000206803F077F9400320684FF0030133D0FB
:1019F00003F070F990FAA0F0B0FA80F12868420381
:101A00002FD090FAA0F0B0FA80F0814204D10022E9
:101A10000321206803F0A0F92068816811F0010F0C
:101A200022D0ACE000E004E003F054F9C0F384619C
:101A30008DE7C0F3846091E703F04CF9C0F3846153
:101A4000A2E7C0F38460A6E703F044F9C0F3846121
:101A5000B7E7C0F38460BBE703F03CF9C0F38461EF
:101A6000CCE7C0F38460D0E72A7B296850F8B03F08
:101A7000C1F3120C23EA0C0302F0180C664A22FA96
:101A80000CF20A4013430360E968494577D128689E
:101A900041031CD090FAA0F1B1FA81F1491C01F088
:101AA0001F0109294FEA403132D8002912D000BF66
:101AB00090FAA0F1B1FA81F101F1010101F01F01E9
:101AC00006FA01F609D100BFC0F3846109E0C0F352
:101AD0008461E3E7C0F38461EEE790FAA0F1B1FA24
:101AE00081F101F1010101F01F0146EA816102D19A
:101AF000C0F3846003E090FAA0F0B0FA80F000F147
:101B0000010000F01F0000EB400041EA005132E00C
:101B100000290ED090FAA0F1B1FA81F101F1010192
:101B200001F01F0106FA01F606D100BFC0F384617F
:101B300006E0C0F38461F1E790FAA0F1B1FA81F117
:101B400001F1010101F01F0146EA816102D1C0F3F8
:101B5000846003E090FAA0F0B0FA80F000F1010098
:101B600000F01F002D4A00EB400002EB005041EA5C
:101B7000000141F00071AA68206803F0CFF82848FE
:101B80002A6802423FF466AE26488168264B01F07F
:101B9000E0719A4202D0254B9A421CD10B021AD412
:101BA0002268B2F1A04F7FF455AE826841F4000183
:101BB00022F0E0720A4382601D481E490068B0FBB3
:101BC000F1F0401C00EB4000800000E0401E00905F
:101BD0000028FBD13EE6184D184BAA4207D1CD0193
:101BE00005D422689A42F5D041F0807109E0144D85
:101BF000AA42EFD14A02EDD422689A42EAD041F4D7
:101C00008001826822F0E0720A43826022E60000CE
:101C100000007F4000F0FF03FFFF0700000020FEF0
:101C20000000088000030050000021C31000C09095
:101C300018000020400D0300000052C700010050B2
:101C4000000084CB704770472DE9F05F04460068C0
:101C500006684568DFF854B2DBF8080000F01F079B
:101C6000B0070ED5A8070CD5E06DC00603D4E06D13
:101C700040F40060E0652046FFF752FA2168022038
:101C80000860DFF82CA270074FF0A04801D5680764
:101C900003D4300737D5280735D5E06DC00603D407
:101CA000E06D40F40070E065206803F02FF820B389
:101CB0002068504501D1424600E00246824208D0E9
:101CC0003FB1052F05D0092F03D0504503D1414620
:101CD00002E0C16801E00146C96889040DD40168C9
:101CE00009070AD503F00AF858B3E06D40F0100078
:101CF000E065206E40F0010020662046FFF7A2FF5D
:101D000021680C200860B00601D5A80603D470062F
:101D100058D5680656D5E06DC00603D4E06D40F492
:101D20000050E0652068C16C11F4C07F1AD000211A
:101D3000894602F0EBFF02462068504514D1434625
:101D400013E02068416821F00C014160E06D20F44F
:101D50008070E065E06DC004CFD4E06D40F001001C
:101D6000E065CAE70121E3E70346834208D03FB1BB
:101D7000062F05D0072F03D0504503D1414602E07E
:101D8000C16801E00146C968B9F1000F14D08B01A8
:101D900002D58AB18A040FD4026852060CD5890292
:101DA0000AD402F0A3FFE8B3E06D40F01000E06554
:101DB000206E40F0010020662046FFF73FFC2168BE
:101DC0006020086030060BD5280609D5E06D40F488
:101DD0008030E065204600F067F9216880200860C7
:101DE000F0050CD5E8050AD5E06D40F40030E0655B
:101DF0002046FFF7A7FC21684FF480700860B0050B
:101E00000CD5A8050AD5E06D40F48020E065204699
:101E1000FFF799FC21684FF400700860F0062ED59A
:101E2000E80600E008E02AD5E06BD0B1AFB1DBF8FE
:101E3000080000F4604013E02068416821F0600170
:101E40004160E06D20F48050E065E06DC005B3D4E2
:101E5000E06D40F00100E065AEE72068C068C007B3
:101E600050B1E06D40F48060E065206E40F002000B
:101E700020662046FFF7E7FE216810200860700505
:101E800012D5680510D5E06D40F48040E065206E05
:101E900040F00800206621684FF48060086020460A
:101EA000BDE8F05FFFF74DBCBDE8F09F00030050B8
:101EB00000010050F8B54FF0000504002E460095D3
:101EC00002D0E06D10B107E00120F8BD204600F01F
:101ED000EDF8266684F8586020688168C1F3407187
:101EE00019B18168684A1140816020688168C1F336
:101EF000007189B98168654A114041F08051816063
:101F0000634864490068B0FBF1F04000801C00E0C9
:101F1000401E00900028FBD120688168C1F3007149
:101F200041B9E16D41F01001E165216E41F001011F
:101F30002166012502F0E2FEE16DC90600D430B150
:101F4000E06D40F01000E06501252846F8BDE06D29
:101F500020F4807040F00200E0652068806810F096
:101F6000010F11D14FF0A04080684B4900F00100F3
:101F7000896801F00101084306D148486168826818
:101F800022F47C120A438260E168E06B627F0843BE
:101F9000A16841EA4231084394F8241040EA014024
:101FA000012904D1218D3E4A02EB41410843E16AF7
:101FB00029B101F47871226B014342EA01002268E1
:101FC000D168384B19400143D16020680169626BC8
:101FD00021F0406111430161206802F087FE70BB6F
:101FE000207F94F83810800340EA41022168C868D5
:101FF00044F2020398431043C86020690028206817
:1020000001690AD041F480310161206850F8C01F95
:1020100022696FF30D01114307E021F48031016162
:10202000206850F8C01F6FF30D01016094F8400064
:1020300001280CD02068016921F00101016160696B
:1020400001282068016B21F00F0111D013E0D4E9C1
:1020500011010843D4E913121143084321680A69A6
:1020600040F2FC739A43104340F001000861E6E738
:10207000226A521E11430163E06D20F0020040F01D
:102080000100E06561E70000C0FFFF5FC0FFFF7F68
:1020900018000020400D0300000100500003005014
:1020A0000000FEFF0740F0FF704700002DE9F041FF
:1020B00098B00446142111A8FEF755FA4421684649
:1020C000FEF751FA4FF40041206800258A03384F8B
:1020D0000326384C4FF09048B0F1A04F10D0364B4B
:1020E000984261D10F926846009101F075F808B1ED
:1020F000FFF708F83868401C3860012834D03BE00E
:102100000F926846009101F067F808B1FEF7FAFFF8
:102110003868401C3860012807D1E06C40F400505A
:10212000E064E06C00F400501690E06C40F00100B8
:10213000E064E06C00F001001690E06C40F00200FA
:10214000E064E06C139500F0020016900420CDE9E5
:10215000110611A9404600F031FD02201395CDE98A
:10216000110611A9154815E0E06C40F40050E06438
:10217000E06C00F400501690E06C40F00100E06468
:10218000E06C139500F0010016904120CDE9110696
:1021900011A9404600F012FD00220521122000F096
:1021A000BFFE122000F0AEFE18B0BDE8F0810000C6
:1021B0000800002000100240000100500004004808
:1021C00010B590F8253000210122022B03D0042104
:1021D000C163012122E003681C6824F00E041C6026
:1021E000836C1C6824F480741C6003681C6824F0F1
:1021F00001041C6090F84430046C03F01F0302FAE1
:1022000003F36360D0E913345C60436D33B11C6841
:1022100024F480741C60D0E916345C6080F82520BA
:10222000002280F82420084610BD70B590F82520C3
:10223000002401212346022A07D00422C26380F829
:10224000251080F82430012429E00268156825F063
:102250000E0515600268156825F001051560826C91
:10226000156825F48075156090F84420056C02F01F
:102270001F0201FA02F26A60D0E913255560426D2F
:1022800032B1156825F480751560D0E916255560C2
:1022900080F8251080F82430816B01B188472046F2
:1022A00070BDF0B4016C0C6801680D6890F84420B2
:1022B00002F01F06042202FA06F3234211D06B0734
:1022C0000FD50B689B0603D40B6823F004030B6047
:1022D00090F8441001F01F018A40016C4A60016BC4
:1022E0001DE0022303FA06F727424FF0000C4FF0DF
:1022F000010218D0AF0716D50C68A40605D40C68E7
:1023000024F00A040C6080F8252090F8441001F0B5
:102310001F018B40016C4B6080F824C0C16A00290A
:102320001AD0F0BC08470823B340234214D02B072F
:1023300012D50B6823F00E030B6090F84410036C69
:1023400001F01F0102FA01F15960C26380F82520F3
:1023500080F824C0416BE2E7F0BC704770B5040020
:102360000CD02B4A21681420914209D2294A0A44F0
:10237000B2FBF0F08000606427480AE0012070BDE5
:10238000234A52420A44B2FBF0F0800060642048C5
:1023900008382064022084F825000A6847F6F070A7
:1023A0008243D4E902031843D4E904352B4318438C
:1023B000A3691843E3691843236A1843104308606C
:1023C0002046FEF74BFCA0680025B0F5804F00D1F9
:1023D0006560A16C20790860D4E9130141606068F0
:1023E000401E032808D82046FEF758FC606D0560A3
:1023F000D4E91601416002E06565A565E565E56320
:10240000012084F8250084F82450002070BD0000CD
:1024100008040240F8FFFDBF0000024070B504460A
:1024200000F0F0FC0546601C02D0044840680444FB
:1024300000F0E8FC401BA042FAD370BD0C00002065
:1024400030B590F85C30012B07D0022B05D0016E1F
:1024500041F002010166012030BD0468A36D4D0703
:1024600001D0DD071DD011F0380F01D09D0718D520
:1024700011F4E07F01D05D0713D511F4F05F01D0B6
:102480001D070ED511F4604F01D0DD0609D511F4FA
:10249000403F01D09D0604D511F47C0F05D05D06A8
:1024A00003D4E56D45F00105E5654C0701D0DC0777
:1024B0001DD111F0380F01D09C0718D411F4E07F22
:1024C00001D05C0713D411F4F05F01D01C070ED4C7
:1024D00011F4604F01D0DC0609D411F4403F01D063
:1024E0009C0604D411F47C0F06D05B0604D5036867
:1024F000DC6D44F00204DC650B0604D5036853F878
:10250000DC4F14431C60CB0504D5036853F8E04F3F
:1025100014431C600068426D0A434265002030BDD0
:1025200010B590F85C20012A07D0022A05D0016E70
:1025300041F002010166012010BD0A687AB10B7BEF
:102540000A690C7A42EA43734A69406C496842EA74
:10255000847200EBC100C0E90032002010BD0B7A8C
:102560004A690C8A42EA83720B7B006CDB0649687D
:1025700043EA04431A4340F82120EEE770477047CE
:102580000068402905D0D0F8980000BF00F00F0087
:102590007047D0F89000F9E7F0B590F85C4000255E
:1025A000022C03D0016E41F0080160E0046840296C
:1025B00046D0D4F89860360756D0D4F89860F60123
:1025C00004D5D4F88060F60500D50125D4F89840EC
:1025D000C4F301246619C46C06EBC60504EBC504FC
:1025E000256815F080455560256843D025F0604585
:1025F000156025682C4F05F00055956020CC05F03E
:102600000045156134F8045BADB2D56154F8045C43
:10261000C5F30345D56054F8045C05F48015556195
:1026200054F8045C05F40015956154F8045CC5F396
:102630000665156254F8045CED0F5562002522E032
:10264000D4F8906036070FD0D4F89060F60104D526
:10265000D4F88060B60500D50125D4F89040C4F3C5
:1026600001246619846CB7E7016E41F4807101663C
:102670000120F0BDC5F38A45BAE700BF14F805C0D4
:1026800003F805C06D1CD2F80CC017F80CC0AC459F
:10269000F4D80068402903D0C0F89C600020F0BD49
:1026A000C0F89460FAE700002488000870472DE91C
:1026B000F05F04460068016D426D01F4E05102EAEA
:1026C0000108016D426D01F0070102EA0109016D87
:1026D000426D01F0380102EA010A016D476D01F413
:1026E00071010F40016D426D01F46021456D02EAF8
:1026F000010B016DCE43710607D4E943490604D4AA
:10270000402101652046FFF7D1FFF0050ED4E843D4
:10271000C0050BD42068D0F8D820D0F8E0101140C4
:102720004FF480720265204600F009FAB8F100000B
:1027300005D0216808654146204600F002FAB9F14B
:10274000000005D0216808654946204600F0B2F92E
:10275000BAF1000005D0216808655146204600F016
:10276000D5F9B00509D4E843800506D421684FF4B3
:1027700000700865204600F0E5F930060DD4E84306
:1027800000060AD42068D0F8D420D0F8DC1011401C
:1027900080220265204600F0D3F9B00409D4E84352
:1027A000800406D421684FF400500865204600F0EC
:1027B000C5F9300409D4E843000406D421684FF475
:1027C00000400865204600F0B8F970040AD4E843D8
:1027D000400407D421684FF480400865206E40F023
:1027E00080002066BBF1000005D0216808655946CD
:1027F0002046FFF7C4FE27B120680765206E3843E6
:102800002066206E002802D02046FFF7B7FEBDE804
:10281000F09F00002DE9F041040006D0DFF8E881C8
:1028200094F85C00002518B107E00120BDE8F081B4
:1028300084F85D50204600F0EFF82068816921F0AF
:102840001001816100F0DEFA0646032705E000BFB3
:1028500000F0D8FA801B0A2811D820688069000788
:10286000F6D42068816941F00101816100F0CAFA63
:1028700006460BE000F0C6FA801B0A2806D9206E37
:1028800040F00100206684F85C70CEE72068806923
:10289000C007EFD02068816941F0020181612168A1
:1028A000414502D1594960680860207C01282068B0
:1028B000816937D041F040018161607C0128206846
:1028C000816932D021F480418161A07C0128206897
:1028D00081692DD041F48051816120688169A268AD
:1028E00021F44071114381612068816921F0A401C4
:1028F00081612068016921F010010161E06801280F
:1029000019D010B302281BD02068816941F08001E2
:1029100081612068016941F010010161E0680328CC
:102920000ED012E021F04001C6E741F48041CBE730
:1029300021F48051D0E72068816941F0040103E06F
:102940002068816941F020018161207EE2694006B2
:102950006FF0FF0101EB0222A0F100701043226A28
:10296000A38A521E10430A0202EB03431843236852
:10297000D861A068B0F5407F10D1D4E90A0301EB1B
:102980000321401E0843216B131303EB011108437D
:10299000A18C02EB014108432168C860206850F80F
:1029A000C01FE26B1143016019482064216851F88F
:1029B000802FA38E22F4F81242EA03420A601449DF
:1029C00070316164216851F8802F94F8383022F01A
:1029D000706242EA03620A600D49B031A1640D4998
:1029E000E1640C49D83121650A49F031616500F58F
:1029F000547120C08842FCD3A5652566012084F867
:102A00005C00002012E70000006400400065004008
:102A100000A4004088A5004010B598B004461421D9
:102A200011A8FDF7A0FD44216846FDF79CFD1F4954
:102A30002068884238D18014009040030C9068468A
:102A400000F0CAFB08B1FEF75DFB1948816D41F04B
:102A500000718165816D01F000711691C16C41F0CA
:102A60000101C164C06C11A900F0010016904FF47F
:102A7000C050119002201290002013901490092051
:102A80001590C00600F09AF800220521152000F0EC
:102A900047FA152000F036FA00220521162000F032
:102AA0003FFA162000F02EFA18B010BD0064004066
:102AB000001002401CB504464021FFF761FD0028CC
:102AC0001DD00F4B402103F15C022046FFF764FD4F
:102AD0000B485C300068B0F5917F10D1694608481A
:102AE000FDF703FF07489DED010A074980ED000A45
:102AF0009DED000ABCEEC00A10EE100A08701CBD65
:102B0000B0220020500100204D010020704790F8B5
:102B10005C10012905D0016E41F00401016601201D
:102B20007047022180F85C1001688A6922F0010276
:102B30008A610021016608467047704770477047F8
:102B40007047704770470000B0F5806F10D0114992
:102B5000B0F5006F0ED0B0F5005F12D0B0F5807FF9
:102B600005D10D4810F8541FC1F1010101707047E3
:102B700002F0D0B991ED010ADFED080A30EE200A2B
:102B800005E091ED010ADFED060A30EE600A81ED05
:102B9000010A70474C010020682100200000C84253
:102BA00000004842044910B50A68024202D0086099
:102BB000FFF7CAFF10BD0000140401402DE9F04FDB
:102BC000DFF82092002301260324A9F1040B85B02D
:102BD0000F2709F1040AABF1040EFAE006FA03F537
:102BE0002A407CD091F804C00CF0030CBCF1010F1A
:102BF00002D0BCF1020F26D1D0F808C0CDF800C039
:102C00004FEA430C04FA0CF8CDF810C0DDF800C010
:102C10002CEA080CCDF800C0D1F80C80DDF810C00B
:102C200008FA0CF8DDF800C048EA0C08C0F8088083
:102C3000D0F804C02CEA050C0D79C5F300159D40B1
:102C400045EA0C0545600D79ED43AD070ED0C5682A
:102C50004FEA430804FA08FC25EA0C05D1F808C03D
:102C60000CFA08FC4CEA050CC0F80CC00D7905F014
:102C70000305022D16D1DD0800EB850CCDF808C048
:102C8000DCF820805D074FEAD56C07FA0CF528EADE
:102C900005080D6905FA0CF5DDF808C045EA0805D8
:102CA000CCF8205005684FEA430CCDF808C004FA70
:102CB0000CFC25EA0C0591F804C00CF00308DDF8C3
:102CC00008C008FA0CF848EA0508C0F800804D680A
:102CD00015F4403F7CD0444DD5F860C000E077E06B
:102CE0004CF0010CC5F860C02D6E23F0030C05F00C
:102CF000010500953D4D65440295AD684FEA837C22
:102D00004FEA1C7807FA08FC25EA0C05B0F1904F51
:102D100006D0DFF8DCC0604505D14FF0010C20E0A3
:102D20004FF0000C1DE0DFF8CCC0604502D14FF041
:102D3000020C16E0DFF8C0C0604502D14FF0030C72
:102D40000FE0DFF8B8C0604502D14FF0040C08E096
:102D5000DFF8ACC0604502D14FF0050C01E04FF048
:102D6000060C0CFA08FC4CEA050C029DC5F808C0DC
:102D7000D9F80050CC46D1F8048095435FEAC828C2
:102D800000D51543CCF80050DAF80050D446D1F8FD
:102D9000048095435FEA882800D51543CCF800509D
:102DA000DBF80050DC46D1F8048095435FEA8838B0
:102DB00000D51543CCF80050DEF80050F446D1F8A9
:102DC000048095435FEAC83800D51543CCF800501D
:102DD0005B1C0A6832FA03F57FF400AF05B0BDE86A
:102DE000F08F000008040140001002400000014084
:102DF0000004004800080048000C0048001000488B
:102E00000014004801488068704700000C00002052
:102E10000248816842681144816070470C000020BC
:102E200010B50024032000F09BF8052000F008F8FE
:102E300008B1012401E000F047F8204610BD000071
:102E400030B505461B4887B0016E41F4802101660C
:102E5000006E06A900F48020009001A800F0EEFBAF
:102E600000F01EFC1449154AB0FBF1F11448491E4C
:102E70000260416040F2E7320021C0E90321816035
:102E800000F08DFF040012D10D4801F031F804006C
:102E90000DD11A2000F036F8102D07D20022294655
:102EA0001A2000F03DF80748056000E0012407B053
:102EB000204630BD0010024040420F000048014053
:102EC0007C0500200C0000200D4808B5016E41F083
:102ED00001010166016E01F001010091816D41F077
:102EE00080518165806D002200F0805000900F219C
:102EF000901E00F015F8BDE8084000F065B900002C
:102F000000100240002809DB00F01F02012191405F
:102F10004009800000F1E020C0F800117047000077
:102F2000F0B40E4B1B680C46C3F30223C3F1070534
:102F3000042D00D90425191D072901D2002300E022
:102F4000DB1E012606FA05F1491E214099409E40EC
:102F5000761E16403143F0BC03F0D1BA0CED00E010
:102F6000064900F0070208684FF6FF03184040EAE0
:102F70000220034A10430860704700000CED00E097
:102F80000000FA05F8B504004FF0000514D094F8DD
:102F90003A00052810D094F83A0002280CD03448A2
:102FA000016E41F001010166006E00F00100009029
:102FB00094F83A0010B104E00120F8BD002084F834
:102FC0003900204600F058F8A0682A4A4FF4807172
:102FD000402836D0602834D020680368E66A23F0A1
:102FE000100333430360D4E901031843D4E90336E3
:102FF00033431843237D012B00D000210843616A2D
:103000000843A16A0843218E40EAC14094F8341075
:1030100040EA016120680368134019430160206899
:103020008169002909DBD4E906121143226A836908
:1030300023F03F031A431143816194F83A0090B1A1
:1030400014E020680368E66A23F01003334303604A
:10305000D4E901031843267D2369012E00D0002105
:103060000B431843CBE7012084F83A002846F8BD0B
:1030700000100240113E00E030B587B00446142134
:103080006846FDF770FA24681D4D00221D49032390
:103090004FF09040AC4209D1CC6C44F00104CC64B8
:1030A000C96C01F0010105910E210CE0144D2D1D9C
:1030B000AC4211D1CC6C44F00104CC64C96C01F079
:1030C00001010591E021CDE9001302924FEA0D01C3
:1030D000FFF774FD07B030BD094808308442F9D1CC
:1030E000C86C40F00200C864C86C694600F0020079
:1030F00005900720CDE9000302920348E8E70000AD
:103100000003014000100240000400482B492C4BF2
:103110000A6832214A432B4940B1B0F5007F086864
:1031200029D020F4C06040F480602CE00868C0F32F
:103130004120022804D051F8800F20F4807022E052
:10314000D1F8800020F48070C1F88000086820F475
:10315000C06040F400700860B2FBF3F0401C00E077
:10316000401E4A69520501D50028F9D14869400539
:103170000AD503207047C0F34120022806D051F839
:10318000800F40F48070086000207047D1F8800004
:1031900040F48070C1F88000086820F4C06040F4FA
:1031A00000700860B2FBF3F0401C00E0401E4A696A
:1031B0005205DBD50028F9D1D8E70000180000201F
:1031C00040420F00007000400248816841F4804195
:1031D00081607047007000402DE9F84304460068A4
:1031E00000269D4D00035ED5A86D0027C00008D4C1
:1031F000A86D40F08050A865A86D012700F08050B0
:103200000090DFF85892D9F8001041F48071C9F8A5
:103210000010FFF7F7FD804606E000BFFFF7F2FD64
:10322000A0EB080002282BD8D9F80000C005F5D57E
:10323000D5F8900010F4407014D0216C814211D068
:10324000D5F89000D5F8901020F4407041F480310A
:10325000C5F89010D5F8901021F48031C5F8901081
:10326000C5F89000C00711D0FFF7CCFD804641F2B1
:10327000883907E0FFF7C6FDA0EB0801494501D9F1
:1032800003260BE0D5F890008007F3D5D5F8900021
:10329000216C20F440700843C5F890001FB1A86D60
:1032A00020F08050A8652078C00707D0D5F88800A6
:1032B000616820F003000843C5F888002078800783
:1032C00007D5D5F88800A16820F00C000843C5F8A0
:1032D00088002078400707D5D5F88800E16820F0FD
:1032E00030000843C5F888002078000707D5D5F8D6
:1032F0008800216920F0C0000843C5F888002078C4
:10330000800607D5D5F88800616920F4406008433D
:10331000C5F888002078400607D5D5F88800A1694F
:1033200020F440500843C5F888002078000607D5EF
:10333000D5F88800E16920F440400843C5F88800CA
:103340002088C00507D5D5F88800216A20F44030D0
:103350000843C5F888002088800507D5D5F888007F
:10336000616A20F440200843C5F8880020884005A1
:103370000FD5D5F88800A16A20F440100843C5F89D
:103380008800A06AB0F5801F03D1E86840F480107F
:10339000E860208800050FD5D5F88800E16A20F4A0
:1033A00040000843C5F88800E06AB0F5800F03D1FB
:1033B000E86840F48010E8602088C0040FD5D5F894
:1033C0008800216B20F040700843C5F88800206B0E
:1033D000B0F1807F03D1E86840F48010E860208875
:1033E0004FF0006180040ED5D5F88800626B20F0A4
:1033F00040601043C5F88800606B884203D1E868DC
:1034000040F48010E860208840040ED5D5F888008C
:10341000A26B20F040601043C5F88800A06B884282
:1034200003D1E86840F48010E860208800040FD5DC
:10343000D5F88800E16B20F040500843C5F88800BB
:10344000E06BB0F1805F03D1E86840F48030E86061
:103450003046BDE8F88300000010024000700040D4
:103460002DE9F0470E4605004FF0000725D0DFF8A4
:10347000AC81D8F8000000F00F00B0420CD2D8F8B0
:10348000001021F00F013143C8F80010D8F80000F7
:1034900000F00F00B04210D12968614CC80741F21A
:1034A000883A5AD06868DFF87C91032808D002284F
:1034B00020682DD0400500282CDB0120BDE8F087D6
:1034C00020688001F9D5E06800F00302E068C0F3ED
:1034D0000310401C032A19D0534A00BFB2FBF0F07E
:1034E000E268C2F306225043E268C2F34162521C12
:1034F0005200B0FBF2F0484517D9A06810F0F00F69
:103500000CD0880711D5A86840B10EE0474AE5E71E
:103510008003D0E700F0D6F8484506D9A06820F02F
:10352000F00040F08000A0608027A068696820F06B
:1035300003000843A060FFF765FC814606E000BF7A
:10354000FFF760FCA0EB090151453AD8A068696813
:1035500000F00C00B0EB810FF2D12868810714D580
:10356000400703D5A06840F4E060A0602878000719
:1035700005D5A06820F4605040F4E060A060A06829
:10358000A96820F0F000084304E0802F03D1A06870
:1035900020F0F000A060D8F80010404601F00F01C4
:1035A000B14216D9016821F00F0131430160FFF7E4
:1035B00029FC074607E000BFFFF724FCC11B51456B
:1035C00001D903207AE7D8F8000000F00F00B042DC
:1035D000F2D12878400705D5A068E96820F4E060BA
:1035E0000843A0602878000706D5A068296920F460
:1035F000605040EAC100A06000F064F8A1680C4A85
:10360000C1F30311515C01F01F01C8400949086072
:1036100009480068BDE8F047FFF712BC00200240EF
:103620000010024000B4C4040024F40000127A0028
:103630005C880008180000200C0000200F220260A7
:103640000C4A936803F003034360936803F0F003AC
:103650008360936803F4E063C36092684FF4E063AF
:1036600003EAD20202610448006800F00F0008601B
:103670007047000000100240002002400548064943
:1036800000688968054AC1F30221515C01F01F01FD
:10369000C840704718000020001002406C880008E5
:1036A0000548064900688968054AC1F3C221515C92
:1036B00001F01F01C84070471800002000100240B0
:1036C0006C880008184910B58868C0F38102174853
:1036D000012A0BD08A684310C2F38102022A06D065
:1036E0008A68C2F38102032A03D0002010BD184665
:1036F00010BDCA6802F00304CA68C2F30312521C68
:10370000032C02D0B0FBF2F001E0B3FBF2F0CA6888
:10371000C968C2F306225043C1F34161491C490004
:10372000B0FBF1F010BD0000001002400024F400D6
:103730002DE9F84304007AD02078F84DC00747D02F
:10374000A868E96800F00C0001F003010C2802D021
:10375000082817D001E0032914D06068B0F5803F35
:1037600017D0B0F5A02F286817D020F4803028603B
:10377000286820F4802028606068E0B1FFF742FBF1
:10378000064614E02868800322D560680028D2D05D
:103790001EE0286840F48030EDE740F48020286087
:1037A000F7E700BFFFF72EFB801B642870D828685E
:1037B0008003F7D50CE0FFF725FB064605E000BFC8
:1037C000FFF720FB801B6428F0D828688003F7D41B
:1037D000207880074CD5A868E96800F00C0001F05B
:1037E00003010C2802D004280DD001E002290AD0E0
:1037F000E068002828682BD040F480702860FFF72C
:1038000001FB064619E02868400502D5E06800285B
:1038100091D06868217C20F0FE4040EA0160686039
:10382000BF480068FFF70CFB002800D120E072E1E0
:10383000FFF7E8FA801B0228B8D828684005F7D5BA
:103840006868217C20F0FE4040EA016068600FE07B
:1038500020F480702860FFF7D5FA064605E000BF27
:10386000FFF7D0FA801B0228A0D828684005F7D4BB
:103870002078000729D560690028D5F8940013D076
:1038800040F00100C5F89400FFF7BCFA064606E0D8
:1038900090E000BFFFF7B6FA801B022886D8D5F863
:1038A00094008007F6D510E020F00100C5F89400E0
:1038B000FFF7A8FA064604E0FFF7A4FA801B0228E7
:1038C00078D8D5F894008007F6D42078400761D5E1
:1038D000A86D0026C00008D4A86D40F08050A865EF
:1038E000A86D012600F0805000908E480168C9053F
:1038F00011D40168804641F480710160FFF782FABB
:10390000074604E0FFF77EFAC01B022852D8D8F819
:103910000000C005F6D5A068012815D00528D5F807
:10392000900016D020F00100C5F89000D5F8900066
:1039300020F00400C5F89000A06841F28838B8B1C2
:10394000FFF760FA07460EE0D5F8900040F001005E
:10395000F0E740F00400C5F89000F5E7FFF752FAF1
:10396000C11B414526D8D5F890008007F6D50CE05C
:10397000FFF748FA074604E0FFF744FAC11B414548
:1039800018D8D5F890008007F6D41EB1A86D20F0A5
:103990008050A8652078800629D5A0690028D5F830
:1039A000980013D040F00100C5F89800FFF72AFAFC
:1039B000064606E075E000BFFFF724FA801B0228E8
:1039C0006FD8D5F898008007F6D510E020F00100F8
:1039D000C5F89800FFF716FA064604E0FFF712FA5A
:1039E000801B02285DD8D5F898008007F6D4E069DE
:1039F000F0B3A968C1F3810103295DD002282868CA
:103A000020F08070286003D0FFF7FCF904464BE0FB
:103A1000FFF7F8F9064604E0FFF7F4F9801B0228E7
:103A20003FD828688001F7D4F4E908016FF00F024D
:103A300002EB01110843218A5204490802EB41516B
:103A4000A26841EA02210843217D4FF07E424908E5
:103A500002EB41610843217B40EAC160E968324AD8
:103A600011400843E860286840F08070286000E05A
:103A70005EE0E86840F08070E860FFF7C3F9044654
:103A800005E000BFFFF7BEF9001B022809D828682F
:103A90008001F7D54CE000BFFFF7B4F9001B022806
:103AA00002D90320BDE8F88328688001F4D4E868CF
:103AB0001E490840E8603BE00128F3D0E868226A2C
:103AC00000F00301914226D1616A00F0F002090181
:103AD000103991421FD1A26A00F4FE41B1EB022FCE
:103AE00019D194F82C2000F07841B1EBC26F12D1BB
:103AF000218E00F4C00249084905A1F50011914248
:103B000009D194F8341000F0C06049084906A1F1C9
:103B1000007181420CD00120C4E700000010024077
:103B20000C000020007000400C809F01FCFFEEFEA6
:103B30000020B7E7704770477047000030B590F835
:103B40003C20012A42D0012280F83C20CA688B68C0
:103B500022F440721A434B6822F480621A430B68C5
:103B600022F400621A430B6922F480521A434B6913
:103B700022F400521A430B6B22F480421A430B8B3F
:103B800022F4702242EA0342CB6922F080521A43A7
:103B90000F4D03680024AB4202D00E4DAB4210D152
:103BA0000D8D22F4700242EA05520D6A22F08072F5
:103BB0002A434D6A22F000722A43C96A22F0005259
:103BC0000A435A6480F83C40002030BD022030BDDA
:103BD000002C0140003401407047704770470000DE
:103BE000F0B590F83C20012A3AD0012580F83C50ED
:103BF000022280F83D2003685A689C68194E1A4FCB
:103C0000B34201D0BB4204D122F4700C4A6842EAAC
:103C10000C02DFF858C002EA0C02D1F800C04CEAEE
:103C2000020CC3F804C00268B2420DD0B2F1804F5A
:103C30000AD00F4B9A4207D00E4B9A4204D0BA4298
:103C400002D00D4B9A4204D1896824F080031943B5
:103C5000916080F83D50002180F83C100846F0BD8E
:103C60000220F0BD002C0140003401408FFFFFFD19
:103C700000040040000800400040014010B5044628
:103C8000022249B104290ED0082913D094F8470024
:103C9000012816D0012010BD94F844000128F9D164
:103CA00084F844200FE094F845000128F2D184F80C
:103CB000452008E094F846000128EBD184F846201E
:103CC00001E084F847200422206801F0A4FF206866
:103CD000416C41F4004141641049206888420ED093
:103CE000B0F1804F0BD00E49884208D00D49884270
:103CF00005D00D49884202D00C49884207D181681D
:103D00000B4A1140062906D0B1F5803F03D0016867
:103D100041F001010160002010BD0000002C0140B5
:103D20000004004000080040003401400040014011
:103D30000700010070B504460D460068002201F03E
:103D40006AFF2068036A41F211110B4244F24442B7
:103D500006D1036A134203D1436C23F40043436446
:103D60002068036A0B4206D1016A114203D101683F
:103D700021F00101016001203DB1042D08D0082D82
:103D800009D084F84700002070BD84F84400FAE7A9
:103D900084F84500F7E784F84600F4E7704710B56B
:103DA000040003D094F83D0010B107E0012010BDDD
:103DB000002084F83C00204600F022F8022084F81D
:103DC0003D00211D206801F0BBFE012084F8480061
:103DD00084F83E0084F83F0084F8400084F84100F5
:103DE00084F8420084F8430084F8440084F84500D5
:103DF00084F8460084F8470084F83D00002010BD98
:103E000008B51D4A01681D4891421ED1016E41F45A
:103E100000610166006E002200F400600090052140
:103E20001820FFF77DF81820FFF76CF800220C210E
:103E30001920FFF775F81920FFF764F80022052113
:103E40001A20FFF76DF81A2010E00D4A914211D1A7
:103E5000016E41F400310166006E002200F4003072
:103E600000900C211920FFF75BF81920BDE80840ED
:103E7000FFF748B808BD0000002C014000100240C8
:103E80000044014090F83D10012901D00120704705
:103E9000022180F83D1000680F4988420ED0B0F131
:103EA000804F0BD00D49884208D00D49884205D07B
:103EB0000C49884202D00C49884207D181680B4ADC
:103EC0001140062906D0B1F5803F03D0016841F0CA
:103ED0000101016000207047002C014000040040F7
:103EE000000800400034014000400140070001008C
:103EF00090F83D10012901D001207047022180F87F
:103F00003D100168CA6842F00102CA6000681049A9
:103F100088420ED0B0F1804F0BD00E49884208D0B5
:103F20000D49884205D00D49884202D00C4988428B
:103F300007D181680B4A1140062906D0B1F5803FB0
:103F400003D0016841F001010160002070470000CA
:103F5000002C0140000400400008004000340140F3
:103F6000004001400700010070B5044690F83C0095
:103F70000025012814D0012684F83C60022084F832
:103F80003D0022689068364B184020F47F409060D6
:103F9000086870282ED010DC10F00F0F03D021E03D
:103FA0004FF0020070BD4FEA2012072A1AD2DFE854
:103FB00002F0525252524A3840002A4BC21A9842DA
:103FC00049D009DCB0F5805F0DD0B0F5005F1CD0A2
:103FD000B0F1101F06D13EE0102A3CD0202A3AD082
:103FE000502A38D0012584F83D60002084F83C0038
:103FF000284670BDCB68D1E90121206801F018FE88
:104000002068816841F0770109E0CB68D1E901219E
:10401000206801F00DFE2068816841F480418160D4
:10402000E1E7CA684968206801F0ACFF50212068C8
:1040300006E0CA684968206801F0B5FF6021206881
:1040400001F000FECFE7CA684968206801F09AFFD6
:1040500040212068F4E7226801461046F0E700009E
:1040600088FFCEFF200010002DE9F0410D4604002E
:1040700003D094F83D0018B108E00120BDE8F081BC
:10408000002084F83C00204600F042F8022084F82A
:104090003D00206881681D4A11408160211D206813
:1040A00001F04EFD226890689169166A2B68AF692D
:1040B000034340F20330814341EA0721A868EF69D6
:1040C00008434FF6FC418843E96840EA0720014372
:1040D00028692F6A000140EA0730084369686D6962
:1040E00026F0AA0646EA05152943936022689061E6
:1040F00054F8480B0162012004F81F096075A0758F
:10410000E076207720750020B8E70000F8BFFEFFBA
:1041100010B586B0044614216846FCF724FA11490C
:10412000206888421CD11048816D41F004018165EE
:10413000816D01F004010591C16C41F00201C1647F
:10414000C06C002100F002000590C0200090022009
:10415000CDE90101CDE9031069460448FEF72EFDC3
:1041600006B010BD000800400010024000040048E6
:1041700070472DE9F04104460068C66805694FF0B4
:104180000007A90713D5B10711D5F91E0161012058
:104190002077206880698007204602D0FFF7E8FF7B
:1041A00004E000F001F9204600F0C3F92777680722
:1041B00016D5700714D521686FF00400086102203D
:1041C00020772068806910F4407F204602D0FFF7F6
:1041D000CFFF04E000F0E8F8204600F0AAF92777C6
:1041E000280715D5300713D521686FF0080008613E
:1041F000042020772068C0698007204602D0FFF79E
:10420000B7FF04E000F0D0F8204600F092F92777DD
:10421000E80616D5F00614D521686FF01000086185
:10422000082020772068C06910F4407F204602D023
:10423000FFF79EFF04E000F0B7F8204600F079F9A0
:104240002777E80708D0F00706D021686FF0010053
:104250000861204600F042FA280601D4A80408D5D7
:10426000300606D521686FF4025008612046FFF73A
:1042700062FCE80508D5300606D521686FF4807029
:1042800008612046FFF756FC680608D5700606D57B
:1042900021686FF040000861204600F037FAA80658
:1042A00008D5B00606D521686FF0200008612046C9
:1042B000FFF742FCE80208D5F00206D521686FF44A
:1042C000801008612046FFF788FCA80208D5B002DC
:1042D00006D521686FF4001008612046FFF77CFCCA
:1042E000680208D5700206D521686FF48000086165
:1042F0002046FFF773FC28020AD5300208D5216852
:104300006FF4000008612046BDE8F041FFF746BDAC
:10431000BDE8F081F0B587B0044614216846FCF78B
:1043200022F91E492068884236D11D48C16C41F0EF
:104330000201C164C16C01F002010591C16C41F040
:104340000101C164C06C022500F0010005904FF42A
:10435000C04000900024CDE901540626114FCDE95C
:10436000034669463846FEF729FCA8030090CDE9CC
:1043700001540420CDE9034069463846FEF71EFC8F
:104380004FF4E0600090CDE90154CDE90346694661
:104390004FF09040FEF712FC07B0F0BD002C01403A
:1043A0000010024000040048704770B5044690F8C1
:1043B0003C0000260D4601280BD0012084F83C006B
:1043C0000C2A4AD007DC82B1042A20D0082A06D160
:1043D00031E0022070BD102A53D0142A63D0012688
:1043E000002084F83C00304670BD206801F034FCA9
:1043F0002068816941F0080181612068816921F0AC
:1044000004018161206881692A69114311E02068F3
:1044100001F070FC2068816941F4006181612068CD
:10442000816921F480618161206881692A6941EA9A
:1044300002218161D4E7206801F0A4FC2068C169F1
:1044400041F00801C1612068C16921F00401C16126
:104450002068C1692A69114311E0206801F0DAFC83
:104460002068C16941F40061C1612068C16921F41B
:104470008061C1612068C1692A6941EA0221C16184
:10448000AEE7206801F00EFD2068016D41F00801E3
:1044900001652068016D21F0040101652068016D4E
:1044A0002A69114311E0206801F034FD2068016D94
:1044B00041F4006101652068016D21F480610165AE
:1044C0002068016D2A6941EA0221016588E710B57B
:1044D000040003D094F83D0010B107E0012010BDA6
:1044E000002084F83C00204600F022F8022084F8E6
:1044F0003D00211D206801F023FB012084F84800C5
:1045000084F83E0084F83F0084F8400084F84100BD
:1045100084F8420084F8430084F8440084F845009D
:1045200084F8460084F8470084F83D00002010BD60
:104530007047704730B50446022269B1042912D091
:10454000082917D00C291CD0102921D094F8430039
:10455000012824D0012030BD94F83E000128F9D173
:1045600084F83E201DE094F83F000128F2D184F841
:104570003F2016E094F840000128EBD184F8402059
:104580000FE094F841000128E4D184F8412008E0CC
:1045900094F842000128DDD184F8422001E084F83B
:1045A00043200122206801F029FB194B206819499A
:1045B000194A984209D0884207D0904205D0174D39
:1045C000A84202D0164DA84203D1456C45F40045DF
:1045D0004564206898420CD0B0F1804F09D0114B4F
:1045E000984206D0104B984203D0884201D09042A6
:1045F00007D181680D4A1140062906D0B1F5803FE8
:1046000003D0016841F001010160002030BD0000CD
:10461000002C0140003401400040014000440140B2
:10462000004801400004004000080040070001006D
:1046300030B504460D460068002201F0DFFA224B37
:1046400041F2111120688A0098420BD01F4B98420A
:1046500008D01F4B984205D01E4B984202D01E4BEB
:10466000984209D1036A0B4206D1036A134203D16F
:10467000436C23F4004343642068036A0B4206D171
:10468000016A114203D1016821F00101016001209A
:104690005DB1042D0CD0082D0DD00C2D0ED0102D99
:1046A0000FD084F84300002030BD84F83E00FAE7C4
:1046B00084F83F00F7E784F84000F4E784F841000D
:1046C000F1E784F84200EEE7002C0140003401409D
:1046D00000400140004401400048014010B504463C
:1046E00000680749884201D1FEF792FB054920681E
:1046F000884203D104480168491C016010BD0000D4
:10470000004801400044014000000020704790F83C
:104710008410012918D0012180F884102421C0F8C8
:10472000881001680A680B6823F001030B6022F00F
:10473000005100224266036819602021C0F88810E9
:1047400080F88420104670470220704770477047F9
:1047500070B5044690F8840001281DD0012084F82B
:1047600084002420C4F8880020680568026822F0CC
:10477000010202602068826822F060620A4382605F
:10478000204601F023FC206805602020C4F8880042
:10479000002084F8840070BD022070BD70B504460E
:1047A00090F8840001281DD0012084F88400242082
:1047B000C4F8880020680568026822F001020260DF
:1047C0002068826822F060420A438260204601F03D
:1047D000FDFB206805602020C4F88800002084F8D4
:1047E000840070BD022070BD7047704770470000A4
:1047F0002DE9F04103680446D86919689A6840F6C3
:104800000F0528424FF000054FF002060AD1870637
:104810007ED501F0200702F0805C57EA0C0777D0C4
:10482000616F42E1B64FDFF8DCC2174001EA0C0CC1
:1048300057EA0C0C6CD05FEAC07C0CD05FEAC15C1C
:1048400009D54FF0010CC3F820C0D4F8903043F0E4
:104850000103C4F89030830709D5D30707D0236834
:104860001E62D4F8903043F00403C4F8903043073C
:104870000AD5D30708D0266804233362D4F89030D1
:1048800043F00203C4F8903003070CD501F0200375
:104890003B4308D0266808233362D4F8903043F0B5
:1048A0000803C4F8903003050BD54B0109D52668E1
:1048B0004FF400633362D4F8903043F02003C4F81F
:1048C0009030D4F89030002B3DD0800609D501F00F
:1048D000200002F08051084303D0616F09B12046E7
:1048E0008847D4F8900021688968490602D410F0FE
:1048F000280F2AD0204601F04DFC20688068400631
:104900001ED52068083050E8001F21F0400100E06B
:1049100021E040E80012002AF3D1D4F8800078B1F9
:1049200079498163D4F88000FDF77FFC00280AD024
:10493000D4F88000816B00E02046BDE8F0410847D4
:104940002046FFF753FFBDE8F0812046FFF74EFFFA
:10495000C4F89050F7E7D4F86CC02027BCF1010FE1
:104960007ED15FEAC06C7BD55FEAC16C78D5102040
:10497000186220688068400651D5D4F880100A6813
:1049800050680004000C3ED0B4F85C3083423AD941
:10499000A4F85E000868006880062CD4216851E8FD
:1049A000000F20F4807041E80002002AF6D1206850
:1049B000083050E8001F21F0010140E80012002AF1
:1049C000F5D12068083050E8001F21F0400140E890
:1049D0000012002AF5D1C4F88C70E566216851E810
:1049E000000F20F0100041E80002002AF6D1D4F8B0
:1049F0008000FDF7E5FB2667B4F85C00B4F85E10B4
:104A0000401A81B207E0B4F85C1081429BD1106873
:104A1000800698D526672046FFF798FE93E7B4F8FE
:104A20005C00B4F85E10401A81B2B4F85E00002851
:104A300089D0002987D0226852E8000F20F49070B6
:104A400042E80003002BF6D12D4BDB4320680830F1
:104A500050E8002F1A4040E8002CBCF1000F00E0A5
:104A60000EE0F3D1C4F88C70E5666567206850E805
:104A7000002F22F0100240E80023002BF6D1C9E7F6
:104A8000C60209D5560207D54FF480101862204699
:104A9000BDE8F041FFF7A9BE03060AD501F0800387
:104AA00002F40002134304D0A16F00297FF444AF45
:104AB00049E7420611D54A060FD52046016851E85C
:104AC000002F22F0400241E80023002BF6D1C0F86D
:104AD0008870856700F0CAF835E7020206D54A00FB
:104AE00004D52046BDE8F041FFF77EBEC00195D554
:104AF000002993DA2046BDE8F041FFF728BE000008
:104B000001000010200100048561000810B50400B8
:104B100003D0D4F8880010B107E0012010BD0020B8
:104B200084F88400204600F027F82420C4F8880088
:104B30002068016821F001010160A06A10B12046DF
:104B400001F066FA204601F04FFB0128E6D020680C
:104B5000416821F4904141602068816821F02A0178
:104B600081602068016841F0010101602046BDE8D4
:104B7000104001F0B1BA0000F0B597B0064614211C
:104B800011A8FBF7F0FC44216846FBF7ECFC324926
:104B9000306888425DD10420002400900394684668
:104BA000FEF71AFB08B1FCF7ADFA2C48816D41F411
:104BB00080218165816D01F480211691C16C41F0E5
:104BC0000201C164C06C11A900F0020016904FF4FC
:104BD000406011900220CDE912040720CDE9144075
:104BE0001F48FDF7EBFF204D1E48802728601C2042
:104BF000C5E90104C5E903476C61AC61EC61284675
:104C00002C62FDF7ABFB08B1FCF77CFAC6F88050CC
:104C1000AE62154D13486035143028601D20686061
:104C200005F10801102081E891006C61AC61EC6134
:104C300028462C62FDF792FB08B1FCF763FAF56792
:104C4000002205212720AE62FEF76AF92720FEF731
:104C500059F917B0F0BD00000048004000100240B4
:104C60000004004808000240BC0400207047D0ED5A
:104C7000070A90ED081AD0ED021A30EEC11AD0EDF5
:104C8000010A60EE800A41EEC10A90ED031A70EE4F
:104C9000810AC0ED030A90ED001A41EE000AC0ED52
:104CA000070A90ED061AF4EEC10AF1EE10FA06DCDE
:104CB00090ED051AF4EEC10AF1EE10FA02D280ED81
:104CC000081A01E0C0ED080A80ED040A90ED080A18
:104CD0007047FEE700EB8100006E00F0F84070477F
:104CE00000EB8100006E00F0F84070478068C0F370
:104CF000C00070478068C0F3C00070478068C0F390
:104D0000800070478068C0F380007047C06810F46E
:104D1000406F01D00020704701207047042303EA50
:104D2000D15310B518444369C1F3045107248C4092
:104D3000A3438A401343436110BD042303EAD153C4
:104D400010B518444369C1F3045107248C40A343B0
:104D50008A401343436110BD00EB8100016E21F0D6
:104D6000004111430166704700EB8100016E21F0A4
:104D70000041114301667047DFED090A094801E06F
:104D800030EE600A10EE101A8142F9DC064910EE8E
:104D9000100A884202D930EE200AF8E77047000076
:104DA000DA0FC940DA0FC940DA0FC9C010B51B4885
:104DB0001B4C2DED028B00799FED1A8A03280FD032
:104DC0000020FBF735FF002084F8D10084ED208A15
:104DD00084ED198A84ED1A8A0020BDEC028B10BD87
:104DE000012084F8D100104880ED0F8A0F4880ED33
:104DF000058A0F4884ED068A84ED0F8A80ED068AC5
:104E000084ED2D8A84ED2E8A84ED2F8A84ED308AFC
:104E100084ED318A84ED328ADEE700004001002013
:104E2000241F00200000000034200020E820002083
:104E3000C4200020214810B5D0F8A410A0F17002C1
:104E4000491CC0F8A41090ED260AD2ED000A64298E
:104E500030EE200A80ED260AD0ED270A92ED011AE5
:104E600070EE810AC0ED270A90ED281AD2ED021AE1
:104E700031EE211A80ED281A1DD301EE901AF8EEBA
:104E8000611A80EE212A00EE101AB8EE400AC0EE38
:104E9000801A00EE101A80ED262A0321B8EE400A8F
:104EA000C1EE000AC0ED271AC0ED280A80F8D11023
:104EB0000120FBF7BDFE002010BD0000241F0020D4
:104EC0000D48002102790D48032A03D080F8D11043
:104ED0000020704702229FED0A0A80F8D12080ED61
:104EE000260A80ED270A80ED280AC0F8A41080ED7C
:104EF000060A80ED0F0AEBE740010020241F002086
:104F00000000000010B5FBF70FFDFBF7C3FC00200D
:104F100010BD000004490878C04310F0FF0008707D
:104F200000D00120487070474C01002030B593B08C
:104F300000240F9410943C2168461194FBF713FB56
:104F400029484FF0A041042501604FF44031C0E9E9
:104F5000011485610121C460C0E9044104774477EC
:104F6000016280F8244080F83840C46380F84040F3
:104F7000FCF7A0FF08B1FCF7C5F80FA91A480F9479
:104F8000FCF7E2FB08B1FCF7BDF8184800900920D7
:104F9000CDE901057F200594CDE9030502200890A5
:104FA00084200A908DF824404FF480708DF82540BD
:104FB0000B908DF826408DF8304069460A48FCF782
:104FC000B1F808B1FCF79EF80948009040F20F10C4
:104FD000019069460448FCF7A5F8002801D0FCF7C9
:104FE00091F813B030BD0000540100200800900C6F
:104FF00000106032F0B597B03C216846FBF7B3FA79
:1050000020210FA8FBF7AFFA2848274900240160A8
:105010004FF44031C0E90114C46004250461C0E9C3
:105020000545047744770126066280F82440C4626F
:10503000046380F83840C46380F84040FCF73AFFCE
:1050400008B1FCF75FF81A48009001A909207F27F2
:1050500081E8A100CDE9045484200A908DF8244011
:105060004FF480708DF825400B9008968DF82640FF
:105070008DF8304069460D48FCF754F808B1FCF74C
:1050800041F80C480F9010A9062081E8A100CDE955
:1050900013540FA90548FCF7C3FB002801D0FCF707
:1050A00031F817B0F0BD000000010050C001002031
:1050B0000800900C02003004114808B5816C41F0E2
:1050C00004018164816C01F004010091816C41F064
:1050D00001018164806C002200F001000090052134
:1050E0000B20FDF71DFF0B20FDF70CFF0022052113
:1050F0000C20FDF715FFBDE808400C20FDF702BFAE
:105100000010024030B5204887B01E4901600821D8
:105110000024C0E90114C46004744474847401253B
:105120000A214561C0E906510922C0E90825C0E904
:105130000A5107210163C0E90D54C463FDF76AFBFE
:1051400008B1FBF7DFFF18216846FBF70CFA0220D5
:1051500003950094CDE9014040F2FF70CDE9044091
:1051600069460948FDF7DCF908B1FBF7CBFF0022DF
:1051700001210548FDF764F90348FDF7C8FC07B0B5
:1051800030BD0000006400402C02002010B5044A2D
:105190000021044801F0A8FA0349086010BD00008E
:1051A00000880008355A00080400002030B587B098
:1051B00014216846FBF7D7F92248C16C41F004017D
:1051C000C164C16C01F004010591C16C41F0200182
:1051D000C164C16C01F020010591C16C41F0010175
:1051E000C164C16C01F001010591C16C41F0020183
:1051F000C164C06C4FF4881400F0020005904FF4B5
:10520000305000258DE8310069460F48FDF7D6FC87
:105210004FF480708DE8310069460C48FDF7CEFCF4
:10522000002205211720FDF77BFE1720FDF76AFEFF
:10523000002205212820FDF773FE2820FDF762FEDD
:1052400007B030BD001002400008004800040048CC
:105250000B4810B509490160002141608160C160BF
:10526000016101758161C162FDF78CFE002803D0E8
:10527000BDE81040FBF746BF10BD00000003014031
:10528000900200200B4810B50949016000214160DF
:105290008160C160016101758161C162FDF772FECB
:1052A000002803D0BDE81040FBF72CBF10BD000064
:1052B00004030140CC0200200B4810B509490160ED
:1052C000002141608160C160016101758161C1623D
:1052D000FDF758FE002803D0BDE81040FBF712BFD1
:1052E00010BD000008030140080300200C4810B561
:1052F0000A490160A021416000214FF47A72C0E99F
:105300000212016141618161FEF749FD002803D06D
:10531000BDE81040FBF7F6BE10BD000000440140A0
:10532000DC03002030B59BB0002419941A94179424
:105330001894149415941C2168461694FBF713F9DD
:10534000342107A8FBF70FF93C483B49C0E900149A
:105350002021816041F63F71C1604FF4807101618D
:105360000121C0E90514FEF71AFD08B1FBF7CAFEDA
:105370004FF48050179017A93048FEF7F5FD08B19B
:10538000FBF7C0FE2D48FFF7A2F808B1FBF7BAFE05
:105390007025CDE9145414A928481694FEF720FC72
:1053A00008B1FBF7AFFE6020CDE90004029403943E
:1053B000049405940022694620480694FEF7F5FF00
:1053C00008B1FBF79FFE042269461C48FEF7EDFF7B
:1053D00008B1FBF797FE082269461848FEF7E5FF7B
:1053E00008B1FBF78FFE41F63E70CDE900500C226C
:1053F00069461248FEF7D9FF08B1FBF783FE079410
:1054000078200894CDE909404FF40050CDE90B40D5
:105410000D9400030E94CDE90F401194129407A946
:1054200006481394FEF78AFB08B1FBF76BFE0348AE
:10543000FEF770FF1BB030BD002C0140440300207C
:1054400010B58CB024216846FBF78DF8002416486F
:1054500009940A9413490B94C0E900144FF47A415B
:10546000C0E90241046184610320CDE90004012008
:10547000CDE902040494CDE90540079469460A4841
:105480000894FEF7F1FD08B1FBF73CFE099409A969
:1054900005480B94FEF7A4FB002801D0FBF732FE71
:1054A0000CB010BD0008004090030020184810B553
:1054B000164901604FF461214160002181600C2296
:1054C000C160C0E904128161C1610162416281620F
:1054D000FFF71CFB08B1FBF715FE00210C48FFF796
:1054E0005DF908B1FBF70EFE00210948FFF730F91E
:1054F00008B1FBF707FE0648FFF709F9002803D0BB
:10550000BDE81040FBF7FEBD10BD000000480040A4
:1055100028040020FEE7FEE710B504462DED068BBB
:10552000F0EE40AAB0EE418AB0EE6A9A806DB0EE1D
:1055300060AAF0EE618A90ED050AF0EE4A9A00EE5C
:10554000489A84ED129A90ED050A40EE689AC4EDEF
:10555000139A94ED010AD4ED140A90ED091A20EE85
:10556000202AD4ED0F0AF0EE601A51EE011A94EDE4
:10557000101A02EE219AD4ED001A09EE211A84EDD8
:10558000101A94ED152A20EE022A90ED090A50EE29
:10559000000A42EE209A94ED112A09EEA12A84ED28
:1055A000112A90ED080A00EE481A84ED141A90EDC5
:1055B000080A00EE682A21EE010A84ED152A02EE9F
:1055C000020A84ED0F0A90ED090AC1EE000AC4ED4B
:1055D0000D0A90ED091A04F1080082EE010AB0EEFE
:1055E000611A84ED0E0A00F013F894ED002AF0EE33
:1055F000681AB0EE481AF0EE4A0AB0EE6A0ABDEC3C
:10560000068BBDE810400148FBF74CBCC4200020CD
:1056100010B504462DED048BB0EE409AB0EE418AF1
:10562000F0EE608A90ED0A0AFBF756F820EE099A30
:1056300094ED0A0AFBF79CF808EEC09A2046B0EEFB
:10564000490AFFF714FB84ED090AD4ED0A0A40EE7B
:10565000080AC4ED0A0AB0EE600AFFF78DFB84ED7C
:105660000A0ABDEC048B10BD10B5154C234413F889
:10567000013C012B04D0022B0BD0032B04D113E0EF
:1056800030EE810AB1EE400A80ED000AC1ED000A59
:1056900007E070EE010AF1EE600AC1ED000A80ED4C
:1056A000000A82ED001A10BD30EE201AB1EE411A48
:1056B00082ED001A80ED000AC1ED000A10BD000065
:1056C000748800083248DFED332AD0ED081A3348D9
:1056D00081EEA22AF1EE002AF7EE001AD0F8CC10E3
:1056E00042EE221A9FED2C2AC2EE212AFDEEE21A8A
:1056F00011EE902A8A4211D20021DFED291AC0F85A
:10570000CC10C0ED2D1AC0ED2E1AC0ED2F1AC0ED31
:10571000301AC0ED311AC0ED321A02E0491CC0F84F
:10572000CC10D0ED2D1AF4EEC01AF1EE10FA01D221
:1057300080ED2D0AD0ED2E1AF4EEC01AF1EE10FA1B
:1057400001DD80ED2E0A90ED2F0AB4EEE00AF1EEB5
:1057500010FA01D2C0ED2F0A90ED300AB4EEE00A43
:10576000F1EE10FA01DDC0ED300A90ED310AB4EE31
:10577000C10AF1EE10FA01D280ED311A90ED320A31
:10578000B4EEC10AF1EE10FA01DD80ED321A704775
:10579000DC2100200000704200409C46241F0020B5
:1057A0000000000010B59FED5F2AB6EE004A21EE22
:1057B000023AB0EE432A01EEC42ADFED5B2AF5EE91
:1057C000C01A002461EE223AB0EE631A01EEC41A48
:1057D000F1EE10FA00DD0124B5EEC02AF1EE10FA68
:1057E00001DD44F00204B5EEC01AF1EE10FA01DD5D
:1057F00044F004041C709FED4D1A01EE843A41EE12
:10580000843A20EE011AC1EE202A22EEA12A23EECC
:10581000221A63EEA21ADFED462A072C21D2DFE816
:1058200004F02004070C11161B00F0EE610A1CE0C6
:10583000F0EE410AB1EE421A17E0F1EE610AB0EE65
:10584000421A12E0F1EE420AB0EE611A0DE0F0EEFB
:10585000420AB1EE411A08E0F1EE410AB1EE611AD6
:1058600003E0F0EE620AB0EE601A70EE811AF4EE18
:10587000C01AF1EE10FA08DD80EEA12A62EE000AED
:1058800081EE212A22EE001A08E0F5EEC01AF1EEB0
:1058900010FA03D2F0EE620AB0EE601A30EE600A3F
:1058A000F5EE001A072C30EE410A20EE210AF0EE48
:1058B000401A40EE841AB0EE612A01EE042A29D281
:1058C000DFE804F02804090E151A2100C0ED001AC3
:1058D00081ED000A08E080ED000A81ED002A0FE06A
:1058E00080ED000AC1ED001A82ED002A10BD80EDA6
:1058F000002AC1ED001A0AE080ED002A81ED000ABD
:10590000C2ED001A10BDC0ED001A81ED002A82ED33
:10591000000A10BDC0ED002AC1ED002AC2ED002A28
:1059200010BD0000D7B35D3FD7B35DBFD7B3DD3F38
:105930000000000070B5354D374C2846297990EDB0
:10594000081ADFED331ADFED332A94ED200AA06840
:10595000D4ED010AB0EE002A052920D2DFE801F0DB
:1059600003060E204B009FED2D0A16E02C48007810
:10597000012814D1BDE87040FBF7FCBA81EE213A52
:10598000D0ED001A23EE021A21EE221A21EE211A7E
:1059900001EE200A84ED200A35E084ED200A70BD76
:1059A00081EE213AD0ED001A23EE021A21EE221ADE
:1059B00021EE211A01EE200A84ED200AFFF7DCF91E
:1059C000184E84ED200AD6ED160A30EEC00A00F01B
:1059D00047FE10EE100A14498842E0DAD5F8880034
:1059E000401CC5F888000A28D9D9012085F88C0008
:1059F00096ED160AD1E70D4890ED0C0A0C48D0ED53
:105A0000000A30EE200AFFF7B7F9C6E7DC210020D4
:105A100000007042DB0F4940241F002000000000FE
:105A2000BC00002034200020CDCCCC3DE82000205C
:105A3000A40000204FF47A74204600F019FEFBE722
:105A400010B54FF0E020006902F05EF8012803D0A5
:105A5000BDE8104001F08CBD10BD00B593B03821F9
:105A60006846FAF780FD14210EA8FAF77CFD0020A5
:105A7000FDF74CFB0220C10103914021049101215B
:105A8000CDE9080100901421CDE90A1007900C908F
:105A90000D906846FDF74CFE08B172B6FEE70F2088
:105AA0000E9003200F90002010901190129004216E
:105AB0000EA8FDF7D5FC002801D072B6FEE713B0A2
:105AC00000BD00000248016841F4700101607047A8
:105AD00088ED00E003480068002802D00148FEF786
